{
	"data": {
		"bytecode": {
			"linkReferences": {},
			"object": "608060405234801562000010575f80fd5b506040518060400160405280600c81526020017f576562334275696c6465727300000000000000000000000000000000000000008152506040518060400160405280600381526020017f574533000000000000000000000000000000000000000000000000000000000081525081600290816200008e919062000465565b508060039081620000a0919062000465565b50620000b16200013360201b60201c565b5f819055505050620000d8620000cc6200013760201b60201c565b6200013e60201b60201c565b30600a5f6101000a81548173ffffffffffffffffffffffffffffffffffffffff021916908373ffffffffffffffffffffffffffffffffffffffff16021790555060b44262000127919062000576565b600981905550620005b0565b5f90565b5f33905090565b5f60085f9054906101000a900473ffffffffffffffffffffffffffffffffffffffff1690508160085f6101000a81548173ffffffffffffffffffffffffffffffffffffffff021916908373ffffffffffffffffffffffffffffffffffffffff1602179055508173ffffffffffffffffffffffffffffffffffffffff168173ffffffffffffffffffffffffffffffffffffffff167f8be0079c531659141344cd1fd0a4f28419497f9722a3daafe3b4186f6b6457e060405160405180910390a35050565b5f81519050919050565b7f4e487b71000000000000000000000000000000000000000000000000000000005f52604160045260245ffd5b7f4e487b71000000000000000000000000000000000000000000000000000000005f52602260045260245ffd5b5f60028204905060018216806200027d57607f821691505b60208210810362000293576200029262000238565b5b50919050565b5f819050815f5260205f209050919050565b5f6020601f8301049050919050565b5f82821b905092915050565b5f60088302620002f77fffffffffffffffffffffffffffffffffffffffffffffffffffffffffffffffff82620002ba565b620003038683620002ba565b95508019841693508086168417925050509392505050565b5f819050919050565b5f819050919050565b5f6200034d6200034762000341846200031b565b62000324565b6200031b565b9050919050565b5f819050919050565b62000368836200032d565b62000380620003778262000354565b848454620002c6565b825550505050565b5f90565b6200039662000388565b620003a38184846200035d565b505050565b5b81811015620003ca57620003be5f826200038c565b600181019050620003a9565b5050565b601f8211156200041957620003e38162000299565b620003ee84620002ab565b81016020851015620003fe578190505b620004166200040d85620002ab565b830182620003a8565b50505b505050565b5f82821c905092915050565b5f6200043b5f19846008026200041e565b1980831691505092915050565b5f6200045583836200042a565b9150826002028217905092915050565b620004708262000201565b67ffffffffffffffff8111156200048c576200048b6200020b565b5b62000498825462000265565b620004a5828285620003ce565b5f60209050601f831160018114620004db575f8415620004c6578287015190505b620004d2858262000448565b86555062000541565b601f198416620004eb8662000299565b5f5b828110156200051457848901518255600182019150602085019450602081019050620004ed565b8683101562000534578489015162000530601f8916826200042a565b8355505b6001600288020188555050505b505050505050565b7f4e487b71000000000000000000000000000000000000000000000000000000005f52601160045260245ffd5b5f62000582826200031b565b91506200058f836200031b565b9250828201905080821115620005aa57620005a962000549565b5b92915050565b6133f380620005be5f395ff3fe6080604052600436106101cc575f3560e01c8063715018a6116100f6578063c23fcdef11610094578063d64297f911610063578063d64297f914610650578063e5496fc81461068c578063e985e9c5146106c8578063f2fde38b14610704576101cc565b8063c23fcdef14610584578063c285e107146105c0578063c87b56dd146105ea578063d304c4bc14610626576101cc565b80639bd37e2c116100d05780639bd37e2c146104e0578063a22cb4651461050a578063a6a3b5b414610532578063b88d4fde1461055c576101cc565b8063715018a6146104765780638da5cb5b1461048c57806395d89b41146104b6576101cc565b806323b872dd1161016e57806342842e0e1161013d57806342842e0e146103ac5780636352211e146103d45780636817c76c1461041057806370a082311461043a576101cc565b806323b872dd1461032a578063278ecde11461035257806331c864e81461037a5780633ccfd60b14610396576101cc565b8063081812fc116101aa578063081812fc14610272578063095ea7b3146102ae5780630cb61f6c146102d657806318160ddd14610300576101cc565b806301ffc9a7146101d057806304cd52941461020c57806306fdde0314610248575b5f80fd5b3480156101db575f80fd5b506101f660048036038101906101f191906126f2565b61072c565b6040516102039190612737565b60405180910390f35b348015610217575f80fd5b50610232600480360381019061022d9190612783565b61080d565b60405161023f91906127bd565b60405180910390f35b348015610253575f80fd5b5061025c61084a565b6040516102699190612860565b60405180910390f35b34801561027d575f80fd5b5061029860048036038101906102939190612783565b6108da565b6040516102a591906128bf565b60405180910390f35b3480156102b9575f80fd5b506102d460048036038101906102cf9190612902565b610952565b005b3480156102e1575f80fd5b506102ea610a5b565b6040516102f791906128bf565b60405180910390f35b34801561030b575f80fd5b50610314610a80565b60405161032191906127bd565b60405180910390f35b348015610335575f80fd5b50610350600480360381019061034b9190612940565b610a95565b005b34801561035d575f80fd5b5061037860048036038101906103739190612783565b610aa5565b005b610394600480360381019061038f9190612783565b610bd4565b005b3480156103a1575f80fd5b506103aa610d3d565b005b3480156103b7575f80fd5b506103d260048036038101906103cd9190612940565b610d9a565b005b3480156103df575f80fd5b506103fa60048036038101906103f59190612783565b610db9565b60405161040791906128bf565b60405180910390f35b34801561041b575f80fd5b50610424610dcd565b60405161043191906127bd565b60405180910390f35b348015610445575f80fd5b50610460600480360381019061045b9190612990565b610dd9565b60405161046d91906127bd565b60405180910390f35b348015610481575f80fd5b5061048a610ea3565b005b348015610497575f80fd5b506104a0610eb6565b6040516104ad91906128bf565b60405180910390f35b3480156104c1575f80fd5b506104ca610ede565b6040516104d79190612860565b60405180910390f35b3480156104eb575f80fd5b506104f4610f6e565b60405161050191906127bd565b60405180910390f35b348015610515575f80fd5b50610530600480360381019061052b91906129e5565b610f74565b005b34801561053d575f80fd5b506105466110e6565b60405161055391906127bd565b60405180910390f35b348015610567575f80fd5b50610582600480360381019061057d9190612b4f565b6110eb565b005b34801561058f575f80fd5b506105aa60048036038101906105a59190612783565b611167565b6040516105b79190612737565b60405180910390f35b3480156105cb575f80fd5b506105d4611184565b6040516105e191906127bd565b60405180910390f35b3480156105f5575f80fd5b50610610600480360381019061060b9190612783565b611189565b60405161061d9190612860565b60405180910390f35b348015610631575f80fd5b5061063a611224565b60405161064791906127bd565b60405180910390f35b34801561065b575f80fd5b5061067660048036038101906106719190612783565b611229565b60405161068391906127bd565b60405180910390f35b348015610697575f80fd5b506106b260048036038101906106ad9190612783565b61123e565b6040516106bf91906127bd565b60405180910390f35b3480156106d3575f80fd5b506106ee60048036038101906106e99190612bcf565b611284565b6040516106fb9190612737565b60405180910390f35b34801561070f575f80fd5b5061072a60048036038101906107259190612990565b611312565b005b5f7f80ac58cd000000000000000000000000000000000000000000000000000000007bffffffffffffffffffffffffffffffffffffffffffffffffffffffff1916827bffffffffffffffffffffffffffffffffffffffffffffffffffffffff191614806107f657507f5b5e139f000000000000000000000000000000000000000000000000000000007bffffffffffffffffffffffffffffffffffffffffffffffffffffffff1916827bffffffffffffffffffffffffffffffffffffffffffffffffffffffff1916145b80610806575061080582611394565b5b9050919050565b5f600c5f8381526020019081526020015f205f9054906101000a900460ff1615610839575f9050610845565b670de0b6b3a764000090505b919050565b60606002805461085990612c3a565b80601f016020809104026020016040519081016040528092919081815260200182805461088590612c3a565b80156108d05780601f106108a7576101008083540402835291602001916108d0565b820191905f5260205f20905b8154815290600101906020018083116108b357829003601f168201915b5050505050905090565b5f6108e4826113fd565b61091a576040517fcf4700e400000000000000000000000000000000000000000000000000000000815260040160405180910390fd5b60065f8381526020019081526020015f205f9054906101000a900473ffffffffffffffffffffffffffffffffffffffff169050919050565b5f61095c82610db9565b90508073ffffffffffffffffffffffffffffffffffffffff168373ffffffffffffffffffffffffffffffffffffffff16036109c3576040517f943f7b8c00000000000000000000000000000000000000000000000000000000815260040160405180910390fd5b8073ffffffffffffffffffffffffffffffffffffffff166109e2611446565b73ffffffffffffffffffffffffffffffffffffffff1614158015610a145750610a1281610a0d611446565b611284565b155b15610a4b576040517fcfb3b94200000000000000000000000000000000000000000000000000000000815260040160405180910390fd5b610a5683838361144d565b505050565b600a5f9054906101000a900473ffffffffffffffffffffffffffffffffffffffff1681565b5f610a896114fc565b6001545f540303905090565b610aa0838383611500565b505050565b610aae8161123e565b4210610aef576040517f08c379a0000000000000000000000000000000000000000000000000000000008152600401610ae690612cb4565b60405180910390fd5b610af881610db9565b73ffffffffffffffffffffffffffffffffffffffff163373ffffffffffffffffffffffffffffffffffffffff1614610b65576040517f08c379a0000000000000000000000000000000000000000000000000000000008152600401610b5c90612d1c565b60405180910390fd5b5f610b6f8261080d565b9050610b9d33600a5f9054906101000a900473ffffffffffffffffffffffffffffffffffffffff1684611500565b6001600c5f8481526020019081526020015f205f6101000a81548160ff021916908315150217905550610bd03382611996565b5050565b670de0b6b3a764000081610be89190612d67565b341015610c2a576040517f08c379a0000000000000000000000000000000000000000000000000000000008152600401610c2190612df2565b60405180910390fd5b600581610c3633611a86565b610c409190612e10565b1115610c81576040517f08c379a0000000000000000000000000000000000000000000000000000000008152600401610c7890612e8d565b60405180910390fd5b606481610c8c611aec565b610c969190612e10565b1115610cd7576040517f08c379a0000000000000000000000000000000000000000000000000000000008152600401610cce90612ef5565b60405180910390fd5b610ce13382611afd565b60b442610cee9190612e10565b6009819055505f815f54610d029190612f13565b90505b5f54811015610d3957600954600b5f8381526020019081526020015f20819055508080610d3190612f46565b915050610d05565b5050565b610d45611b1a565b6009544211610d89576040517f08c379a0000000000000000000000000000000000000000000000000000000008152600401610d8090612fd7565b60405180910390fd5b5f479050610d973382611996565b50565b610db483838360405180602001604052805f8152506110eb565b505050565b5f610dc382611b98565b5f01519050919050565b670de0b6b3a764000081565b5f8073ffffffffffffffffffffffffffffffffffffffff168273ffffffffffffffffffffffffffffffffffffffff1603610e3f576040517f8f4eb60400000000000000000000000000000000000000000000000000000000815260040160405180910390fd5b60055f8373ffffffffffffffffffffffffffffffffffffffff1673ffffffffffffffffffffffffffffffffffffffff1681526020019081526020015f205f015f9054906101000a900467ffffffffffffffff1667ffffffffffffffff169050919050565b610eab611b1a565b610eb45f611e14565b565b5f60085f9054906101000a900473ffffffffffffffffffffffffffffffffffffffff16905090565b606060038054610eed90612c3a565b80601f0160208091040260200160405190810160405280929190818152602001828054610f1990612c3a565b8015610f645780601f10610f3b57610100808354040283529160200191610f64565b820191905f5260205f20905b815481529060010190602001808311610f4757829003601f168201915b5050505050905090565b60095481565b610f7c611446565b73ffffffffffffffffffffffffffffffffffffffff168273ffffffffffffffffffffffffffffffffffffffff1603610fe0576040517fb06307db00000000000000000000000000000000000000000000000000000000815260040160405180910390fd5b8060075f610fec611446565b73ffffffffffffffffffffffffffffffffffffffff1673ffffffffffffffffffffffffffffffffffffffff1681526020019081526020015f205f8473ffffffffffffffffffffffffffffffffffffffff1673ffffffffffffffffffffffffffffffffffffffff1681526020019081526020015f205f6101000a81548160ff0219169083151502179055508173ffffffffffffffffffffffffffffffffffffffff16611095611446565b73ffffffffffffffffffffffffffffffffffffffff167f17307eab39ab6107e8899845ad3d59bd9653f200f220920489ca2b5937696c31836040516110da9190612737565b60405180910390a35050565b60b481565b6110f6848484611500565b6111158373ffffffffffffffffffffffffffffffffffffffff16611ed7565b801561112a575061112884848484611ef9565b155b15611161576040517fd1a57ed600000000000000000000000000000000000000000000000000000000815260040160405180910390fd5b50505050565b600c602052805f5260405f205f915054906101000a900460ff1681565b606481565b6060611194826113fd565b6111ca576040517fa14c4b5000000000000000000000000000000000000000000000000000000000815260040160405180910390fd5b5f6111d3612044565b90505f8151036111f15760405180602001604052805f81525061121c565b806111fb84612064565b60405160200161120c92919061302f565b6040516020818303038152906040525b915050919050565b600581565b600b602052805f5260405f205f915090505481565b5f600c5f8381526020019081526020015f205f9054906101000a900460ff161561126a575f905061127f565b600b5f8381526020019081526020015f205490505b919050565b5f60075f8473ffffffffffffffffffffffffffffffffffffffff1673ffffffffffffffffffffffffffffffffffffffff1681526020019081526020015f205f8373ffffffffffffffffffffffffffffffffffffffff1673ffffffffffffffffffffffffffffffffffffffff1681526020019081526020015f205f9054906101000a900460ff16905092915050565b61131a611b1a565b5f73ffffffffffffffffffffffffffffffffffffffff168173ffffffffffffffffffffffffffffffffffffffff1603611388576040517f08c379a000000000000000000000000000000000000000000000000000000000815260040161137f906130c2565b60405180910390fd5b61139181611e14565b50565b5f7f01ffc9a7000000000000000000000000000000000000000000000000000000007bffffffffffffffffffffffffffffffffffffffffffffffffffffffff1916827bffffffffffffffffffffffffffffffffffffffffffffffffffffffff1916149050919050565b5f816114076114fc565b1115801561141557505f5482105b801561143f575060045f8381526020019081526020015f205f01601c9054906101000a900460ff16155b9050919050565b5f33905090565b8260065f8481526020019081526020015f205f6101000a81548173ffffffffffffffffffffffffffffffffffffffff021916908373ffffffffffffffffffffffffffffffffffffffff160217905550818373ffffffffffffffffffffffffffffffffffffffff168273ffffffffffffffffffffffffffffffffffffffff167f8c5be1e5ebec7d5bd14f71427d1e84f3dd0314c0f7b2291e5b200ac8c7c3b92560405160405180910390a4505050565b5f90565b5f61150a82611b98565b90508373ffffffffffffffffffffffffffffffffffffffff16815f015173ffffffffffffffffffffffffffffffffffffffff1614611574576040517fa114810000000000000000000000000000000000000000000000000000000000815260040160405180910390fd5b5f8473ffffffffffffffffffffffffffffffffffffffff16611594611446565b73ffffffffffffffffffffffffffffffffffffffff1614806115c357506115c2856115bd611446565b611284565b5b8061160857506115d1611446565b73ffffffffffffffffffffffffffffffffffffffff166115f0846108da565b73ffffffffffffffffffffffffffffffffffffffff16145b905080611641576040517f59c896be00000000000000000000000000000000000000000000000000000000815260040160405180910390fd5b5f73ffffffffffffffffffffffffffffffffffffffff168473ffffffffffffffffffffffffffffffffffffffff16036116a6576040517fea553b3400000000000000000000000000000000000000000000000000000000815260040160405180910390fd5b6116b3858585600161212e565b6116be5f848761144d565b600160055f8773ffffffffffffffffffffffffffffffffffffffff1673ffffffffffffffffffffffffffffffffffffffff1681526020019081526020015f205f015f8282829054906101000a900467ffffffffffffffff160392506101000a81548167ffffffffffffffff021916908367ffffffffffffffff160217905550600160055f8673ffffffffffffffffffffffffffffffffffffffff1673ffffffffffffffffffffffffffffffffffffffff1681526020019081526020015f205f015f8282829054906101000a900467ffffffffffffffff160192506101000a81548167ffffffffffffffff021916908367ffffffffffffffff1602179055505f60045f8581526020019081526020015f20905084815f015f6101000a81548173ffffffffffffffffffffffffffffffffffffffff021916908373ffffffffffffffffffffffffffffffffffffffff16021790555042815f0160146101000a81548167ffffffffffffffff021916908367ffffffffffffffff1602179055505f6001850190505f60045f8381526020019081526020015f2090505f73ffffffffffffffffffffffffffffffffffffffff16815f015f9054906101000a900473ffffffffffffffffffffffffffffffffffffffff1673ffffffffffffffffffffffffffffffffffffffff1603611924575f5482146119235787815f015f6101000a81548173ffffffffffffffffffffffffffffffffffffffff021916908373ffffffffffffffffffffffffffffffffffffffff1602179055508460200151815f0160146101000a81548167ffffffffffffffff021916908367ffffffffffffffff1602179055505b5b505050828473ffffffffffffffffffffffffffffffffffffffff168673ffffffffffffffffffffffffffffffffffffffff167fddf252ad1be2c89b69c2b068fc378daa952ba7f163c4a11628f55a4df523b3ef60405160405180910390a461198f8585856001612134565b5050505050565b804710156119d9576040517f08c379a00000000000000000000000000000000000000000000000000000000081526004016119d09061312a565b60405180910390fd5b5f8273ffffffffffffffffffffffffffffffffffffffff16826040516119fe90613175565b5f6040518083038185875af1925050503d805f8114611a38576040519150601f19603f3d011682016040523d82523d5f602084013e611a3d565b606091505b5050905080611a81576040517f08c379a0000000000000000000000000000000000000000000000000000000008152600401611a78906131f9565b60405180910390fd5b505050565b5f60055f8373ffffffffffffffffffffffffffffffffffffffff1673ffffffffffffffffffffffffffffffffffffffff1681526020019081526020015f205f0160089054906101000a900467ffffffffffffffff1667ffffffffffffffff169050919050565b5f611af56114fc565b5f5403905090565b611b16828260405180602001604052805f81525061213a565b5050565b611b22611446565b73ffffffffffffffffffffffffffffffffffffffff16611b40610eb6565b73ffffffffffffffffffffffffffffffffffffffff1614611b96576040517f08c379a0000000000000000000000000000000000000000000000000000000008152600401611b8d90613261565b60405180910390fd5b565b611ba061264c565b5f82905080611bad6114fc565b11158015611bbb57505f5481105b15611ddd575f60045f8381526020019081526020015f206040518060600160405290815f82015f9054906101000a900473ffffffffffffffffffffffffffffffffffffffff1673ffffffffffffffffffffffffffffffffffffffff1673ffffffffffffffffffffffffffffffffffffffff1681526020015f820160149054906101000a900467ffffffffffffffff1667ffffffffffffffff1667ffffffffffffffff1681526020015f8201601c9054906101000a900460ff16151515158152505090508060400151611ddb575f73ffffffffffffffffffffffffffffffffffffffff16815f015173ffffffffffffffffffffffffffffffffffffffff1614611cc7578092505050611e0f565b5b600115611dda5781806001900392505060045f8381526020019081526020015f206040518060600160405290815f82015f9054906101000a900473ffffffffffffffffffffffffffffffffffffffff1673ffffffffffffffffffffffffffffffffffffffff1673ffffffffffffffffffffffffffffffffffffffff1681526020015f820160149054906101000a900467ffffffffffffffff1667ffffffffffffffff1667ffffffffffffffff1681526020015f8201601c9054906101000a900460ff16151515158152505090505f73ffffffffffffffffffffffffffffffffffffffff16815f015173ffffffffffffffffffffffffffffffffffffffff1614611dd5578092505050611e0f565b611cc8565b5b505b6040517fdf2d9b4200000000000000000000000000000000000000000000000000000000815260040160405180910390fd5b919050565b5f60085f9054906101000a900473ffffffffffffffffffffffffffffffffffffffff1690508160085f6101000a81548173ffffffffffffffffffffffffffffffffffffffff021916908373ffffffffffffffffffffffffffffffffffffffff1602179055508173ffffffffffffffffffffffffffffffffffffffff168173ffffffffffffffffffffffffffffffffffffffff167f8be0079c531659141344cd1fd0a4f28419497f9722a3daafe3b4186f6b6457e060405160405180910390a35050565b5f808273ffffffffffffffffffffffffffffffffffffffff163b119050919050565b5f8373ffffffffffffffffffffffffffffffffffffffff1663150b7a02611f1e611446565b8786866040518563ffffffff1660e01b8152600401611f4094939291906132d1565b6020604051808303815f875af1925050508015611f7b57506040513d601f19601f82011682018060405250810190611f78919061332f565b60015b611ff1573d805f8114611fa9576040519150601f19603f3d011682016040523d82523d5f602084013e611fae565b606091505b505f815103611fe9576040517fd1a57ed600000000000000000000000000000000000000000000000000000000815260040160405180910390fd5b805181602001fd5b63150b7a0260e01b7bffffffffffffffffffffffffffffffffffffffffffffffffffffffff1916817bffffffffffffffffffffffffffffffffffffffffffffffffffffffff191614915050949350505050565b606060405180606001604052806036815260200161338860369139905090565b60605f60016120728461214c565b0190505f8167ffffffffffffffff8111156120905761208f612a2b565b5b6040519080825280601f01601f1916602001820160405280156120c25781602001600182028036833780820191505090505b5090505f82602001820190505b600115612123578080600190039150507f3031323334353637383961626364656600000000000000000000000000000000600a86061a8153600a85816121185761211761335a565b5b0494505f85036120cf575b819350505050919050565b50505050565b50505050565b612147838383600161229d565b505050565b5f805f90507a184f03e93ff9f4daa797ed6e38ed64bf6a1f01000000000000000083106121a8577a184f03e93ff9f4daa797ed6e38ed64bf6a1f010000000000000000838161219e5761219d61335a565b5b0492506040810190505b6d04ee2d6d415b85acef810000000083106121e5576d04ee2d6d415b85acef810000000083816121db576121da61335a565b5b0492506020810190505b662386f26fc10000831061221457662386f26fc10000838161220a5761220961335a565b5b0492506010810190505b6305f5e100831061223d576305f5e10083816122335761223261335a565b5b0492506008810190505b61271083106122625761271083816122585761225761335a565b5b0492506004810190505b60648310612285576064838161227b5761227a61335a565b5b0492506002810190505b600a8310612294576001810190505b80915050919050565b5f805490505f73ffffffffffffffffffffffffffffffffffffffff168573ffffffffffffffffffffffffffffffffffffffff1603612307576040517f2e07630000000000000000000000000000000000000000000000000000000000815260040160405180910390fd5b5f8403612340576040517fb562e8dd00000000000000000000000000000000000000000000000000000000815260040160405180910390fd5b61234c5f86838761212e565b8360055f8773ffffffffffffffffffffffffffffffffffffffff1673ffffffffffffffffffffffffffffffffffffffff1681526020019081526020015f205f015f8282829054906101000a900467ffffffffffffffff160192506101000a81548167ffffffffffffffff021916908367ffffffffffffffff1602179055508360055f8773ffffffffffffffffffffffffffffffffffffffff1673ffffffffffffffffffffffffffffffffffffffff1681526020019081526020015f205f0160088282829054906101000a900467ffffffffffffffff160192506101000a81548167ffffffffffffffff021916908367ffffffffffffffff1602179055508460045f8381526020019081526020015f205f015f6101000a81548173ffffffffffffffffffffffffffffffffffffffff021916908373ffffffffffffffffffffffffffffffffffffffff1602179055504260045f8381526020019081526020015f205f0160146101000a81548167ffffffffffffffff021916908367ffffffffffffffff1602179055505f8190505f858201905083801561250657506125058773ffffffffffffffffffffffffffffffffffffffff16611ed7565b5b156125c7575b818773ffffffffffffffffffffffffffffffffffffffff165f73ffffffffffffffffffffffffffffffffffffffff167fddf252ad1be2c89b69c2b068fc378daa952ba7f163c4a11628f55a4df523b3ef60405160405180910390a46125795f888480600101955088611ef9565b6125af576040517fd1a57ed600000000000000000000000000000000000000000000000000000000815260040160405180910390fd5b80820361250c57825f54146125c2575f80fd5b612631565b5b818060010192508773ffffffffffffffffffffffffffffffffffffffff165f73ffffffffffffffffffffffffffffffffffffffff167fddf252ad1be2c89b69c2b068fc378daa952ba7f163c4a11628f55a4df523b3ef60405160405180910390a48082036125c8575b815f8190555050506126455f868387612134565b5050505050565b60405180606001604052805f73ffffffffffffffffffffffffffffffffffffffff1681526020015f67ffffffffffffffff1681526020015f151581525090565b5f604051905090565b5f80fd5b5f80fd5b5f7fffffffff0000000000000000000000000000000000000000000000000000000082169050919050565b6126d18161269d565b81146126db575f80fd5b50565b5f813590506126ec816126c8565b92915050565b5f6020828403121561270757612706612695565b5b5f612714848285016126de565b91505092915050565b5f8115159050919050565b6127318161271d565b82525050565b5f60208201905061274a5f830184612728565b92915050565b5f819050919050565b61276281612750565b811461276c575f80fd5b50565b5f8135905061277d81612759565b92915050565b5f6020828403121561279857612797612695565b5b5f6127a58482850161276f565b91505092915050565b6127b781612750565b82525050565b5f6020820190506127d05f8301846127ae565b92915050565b5f81519050919050565b5f82825260208201905092915050565b5f5b8381101561280d5780820151818401526020810190506127f2565b5f8484015250505050565b5f601f19601f8301169050919050565b5f612832826127d6565b61283c81856127e0565b935061284c8185602086016127f0565b61285581612818565b840191505092915050565b5f6020820190508181035f8301526128788184612828565b905092915050565b5f73ffffffffffffffffffffffffffffffffffffffff82169050919050565b5f6128a982612880565b9050919050565b6128b98161289f565b82525050565b5f6020820190506128d25f8301846128b0565b92915050565b6128e18161289f565b81146128eb575f80fd5b50565b5f813590506128fc816128d8565b92915050565b5f806040838503121561291857612917612695565b5b5f612925858286016128ee565b92505060206129368582860161276f565b9150509250929050565b5f805f6060848603121561295757612956612695565b5b5f612964868287016128ee565b9350506020612975868287016128ee565b92505060406129868682870161276f565b9150509250925092565b5f602082840312156129a5576129a4612695565b5b5f6129b2848285016128ee565b91505092915050565b6129c48161271d565b81146129ce575f80fd5b50565b5f813590506129df816129bb565b92915050565b5f80604083850312156129fb576129fa612695565b5b5f612a08858286016128ee565b9250506020612a19858286016129d1565b9150509250929050565b5f80fd5b5f80fd5b7f4e487b71000000000000000000000000000000000000000000000000000000005f52604160045260245ffd5b612a6182612818565b810181811067ffffffffffffffff82111715612a8057612a7f612a2b565b5b80604052505050565b5f612a9261268c565b9050612a9e8282612a58565b919050565b5f67ffffffffffffffff821115612abd57612abc612a2b565b5b612ac682612818565b9050602081019050919050565b828183375f83830152505050565b5f612af3612aee84612aa3565b612a89565b905082815260208101848484011115612b0f57612b0e612a27565b5b612b1a848285612ad3565b509392505050565b5f82601f830112612b3657612b35612a23565b5b8135612b46848260208601612ae1565b91505092915050565b5f805f8060808587031215612b6757612b66612695565b5b5f612b74878288016128ee565b9450506020612b85878288016128ee565b9350506040612b968782880161276f565b925050606085013567ffffffffffffffff811115612bb757612bb6612699565b5b612bc387828801612b22565b91505092959194509250565b5f8060408385031215612be557612be4612695565b5b5f612bf2858286016128ee565b9250506020612c03858286016128ee565b9150509250929050565b7f4e487b71000000000000000000000000000000000000000000000000000000005f52602260045260245ffd5b5f6002820490506001821680612c5157607f821691505b602082108103612c6457612c63612c0d565b5b50919050565b7f526566756e6420506572696f64204578706972656400000000000000000000005f82015250565b5f612c9e6015836127e0565b9150612ca982612c6a565b602082019050919050565b5f6020820190508181035f830152612ccb81612c92565b9050919050565b7f4e6f7420796f7572204e465400000000000000000000000000000000000000005f82015250565b5f612d06600c836127e0565b9150612d1182612cd2565b602082019050919050565b5f6020820190508181035f830152612d3381612cfa565b9050919050565b7f4e487b71000000000000000000000000000000000000000000000000000000005f52601160045260245ffd5b5f612d7182612750565b9150612d7c83612750565b9250828202612d8a81612750565b91508282048414831517612da157612da0612d3a565b5b5092915050565b7f4e6f7420656e6f7567682066756e6473000000000000000000000000000000005f82015250565b5f612ddc6010836127e0565b9150612de782612da8565b602082019050919050565b5f6020820190508181035f830152612e0981612dd0565b9050919050565b5f612e1a82612750565b9150612e2583612750565b9250828201905080821115612e3d57612e3c612d3a565b5b92915050565b7f4d696e74204c696d6974000000000000000000000000000000000000000000005f82015250565b5f612e77600a836127e0565b9150612e8282612e43565b602082019050919050565b5f6020820190508181035f830152612ea481612e6b565b9050919050565b7f534f4c44204f55540000000000000000000000000000000000000000000000005f82015250565b5f612edf6008836127e0565b9150612eea82612eab565b602082019050919050565b5f6020820190508181035f830152612f0c81612ed3565b9050919050565b5f612f1d82612750565b9150612f2883612750565b9250828203905081811115612f4057612f3f612d3a565b5b92915050565b5f612f5082612750565b91507fffffffffffffffffffffffffffffffffffffffffffffffffffffffffffffffff8203612f8257612f81612d3a565b5b600182019050919050565b7f49742773206e6f7420706173742074686520726566756e6420706572696f64005f82015250565b5f612fc1601f836127e0565b9150612fcc82612f8d565b602082019050919050565b5f6020820190508181035f830152612fee81612fb5565b9050919050565b5f81905092915050565b5f613009826127d6565b6130138185612ff5565b93506130238185602086016127f0565b80840191505092915050565b5f61303a8285612fff565b91506130468284612fff565b91508190509392505050565b7f4f776e61626c653a206e6577206f776e657220697320746865207a65726f20615f8201527f6464726573730000000000000000000000000000000000000000000000000000602082015250565b5f6130ac6026836127e0565b91506130b782613052565b604082019050919050565b5f6020820190508181035f8301526130d9816130a0565b9050919050565b7f416464726573733a20696e73756666696369656e742062616c616e63650000005f82015250565b5f613114601d836127e0565b915061311f826130e0565b602082019050919050565b5f6020820190508181035f83015261314181613108565b9050919050565b5f81905092915050565b50565b5f6131605f83613148565b915061316b82613152565b5f82019050919050565b5f61317f82613155565b9150819050919050565b7f416464726573733a20756e61626c6520746f2073656e642076616c75652c20725f8201527f6563697069656e74206d61792068617665207265766572746564000000000000602082015250565b5f6131e3603a836127e0565b91506131ee82613189565b604082019050919050565b5f6020820190508181035f830152613210816131d7565b9050919050565b7f4f776e61626c653a2063616c6c6572206973206e6f7420746865206f776e65725f82015250565b5f61324b6020836127e0565b915061325682613217565b602082019050919050565b5f6020820190508181035f8301526132788161323f565b9050919050565b5f81519050919050565b5f82825260208201905092915050565b5f6132a38261327f565b6132ad8185613289565b93506132bd8185602086016127f0565b6132c681612818565b840191505092915050565b5f6080820190506132e45f8301876128b0565b6132f160208301866128b0565b6132fe60408301856127ae565b81810360608301526133108184613299565b905095945050505050565b5f81519050613329816126c8565b92915050565b5f6020828403121561334457613343612695565b5b5f6133518482850161331b565b91505092915050565b7f4e487b71000000000000000000000000000000000000000000000000000000005f52601260045260245ffdfe697066733a2f2f516d62736552544a5753734c666873695777754232523745744e39335478666f614d7a31533546587473464555422fa2646970667358221220ae0184460d64249868a5815ab62c639f0abe4f85fb0372c42b7f9a2c45b16ed564736f6c63430008140033",
			"opcodes": "PUSH1 0x80 PUSH1 0x40 MSTORE CALLVALUE DUP1 ISZERO PUSH3 0x10 JUMPI PUSH0 DUP1 REVERT JUMPDEST POP PUSH1 0x40 MLOAD DUP1 PUSH1 0x40 ADD PUSH1 0x40 MSTORE DUP1 PUSH1 0xC DUP2 MSTORE PUSH1 0x20 ADD PUSH32 0x576562334275696C646572730000000000000000000000000000000000000000 DUP2 MSTORE POP PUSH1 0x40 MLOAD DUP1 PUSH1 0x40 ADD PUSH1 0x40 MSTORE DUP1 PUSH1 0x3 DUP2 MSTORE PUSH1 0x20 ADD PUSH32 0x5745330000000000000000000000000000000000000000000000000000000000 DUP2 MSTORE POP DUP2 PUSH1 0x2 SWAP1 DUP2 PUSH3 0x8E SWAP2 SWAP1 PUSH3 0x465 JUMP JUMPDEST POP DUP1 PUSH1 0x3 SWAP1 DUP2 PUSH3 0xA0 SWAP2 SWAP1 PUSH3 0x465 JUMP JUMPDEST POP PUSH3 0xB1 PUSH3 0x133 PUSH1 0x20 SHL PUSH1 0x20 SHR JUMP JUMPDEST PUSH0 DUP2 SWAP1 SSTORE POP POP POP PUSH3 0xD8 PUSH3 0xCC PUSH3 0x137 PUSH1 0x20 SHL PUSH1 0x20 SHR JUMP JUMPDEST PUSH3 0x13E PUSH1 0x20 SHL PUSH1 0x20 SHR JUMP JUMPDEST ADDRESS PUSH1 0xA PUSH0 PUSH2 0x100 EXP DUP2 SLOAD DUP2 PUSH20 0xFFFFFFFFFFFFFFFFFFFFFFFFFFFFFFFFFFFFFFFF MUL NOT AND SWAP1 DUP4 PUSH20 0xFFFFFFFFFFFFFFFFFFFFFFFFFFFFFFFFFFFFFFFF AND MUL OR SWAP1 SSTORE POP PUSH1 0xB4 TIMESTAMP PUSH3 0x127 SWAP2 SWAP1 PUSH3 0x576 JUMP JUMPDEST PUSH1 0x9 DUP2 SWAP1 SSTORE POP PUSH3 0x5B0 JUMP JUMPDEST PUSH0 SWAP1 JUMP JUMPDEST PUSH0 CALLER SWAP1 POP SWAP1 JUMP JUMPDEST PUSH0 PUSH1 0x8 PUSH0 SWAP1 SLOAD SWAP1 PUSH2 0x100 EXP SWAP1 DIV PUSH20 0xFFFFFFFFFFFFFFFFFFFFFFFFFFFFFFFFFFFFFFFF AND SWAP1 POP DUP2 PUSH1 0x8 PUSH0 PUSH2 0x100 EXP DUP2 SLOAD DUP2 PUSH20 0xFFFFFFFFFFFFFFFFFFFFFFFFFFFFFFFFFFFFFFFF MUL NOT AND SWAP1 DUP4 PUSH20 0xFFFFFFFFFFFFFFFFFFFFFFFFFFFFFFFFFFFFFFFF AND MUL OR SWAP1 SSTORE POP DUP2 PUSH20 0xFFFFFFFFFFFFFFFFFFFFFFFFFFFFFFFFFFFFFFFF AND DUP2 PUSH20 0xFFFFFFFFFFFFFFFFFFFFFFFFFFFFFFFFFFFFFFFF AND PUSH32 0x8BE0079C531659141344CD1FD0A4F28419497F9722A3DAAFE3B4186F6B6457E0 PUSH1 0x40 MLOAD PUSH1 0x40 MLOAD DUP1 SWAP2 SUB SWAP1 LOG3 POP POP JUMP JUMPDEST PUSH0 DUP2 MLOAD SWAP1 POP SWAP2 SWAP1 POP JUMP JUMPDEST PUSH32 0x4E487B7100000000000000000000000000000000000000000000000000000000 PUSH0 MSTORE PUSH1 0x41 PUSH1 0x4 MSTORE PUSH1 0x24 PUSH0 REVERT JUMPDEST PUSH32 0x4E487B7100000000000000000000000000000000000000000000000000000000 PUSH0 MSTORE PUSH1 0x22 PUSH1 0x4 MSTORE PUSH1 0x24 PUSH0 REVERT JUMPDEST PUSH0 PUSH1 0x2 DUP3 DIV SWAP1 POP PUSH1 0x1 DUP3 AND DUP1 PUSH3 0x27D JUMPI PUSH1 0x7F DUP3 AND SWAP2 POP JUMPDEST PUSH1 0x20 DUP3 LT DUP2 SUB PUSH3 0x293 JUMPI PUSH3 0x292 PUSH3 0x238 JUMP JUMPDEST JUMPDEST POP SWAP2 SWAP1 POP JUMP JUMPDEST PUSH0 DUP2 SWAP1 POP DUP2 PUSH0 MSTORE PUSH1 0x20 PUSH0 KECCAK256 SWAP1 POP SWAP2 SWAP1 POP JUMP JUMPDEST PUSH0 PUSH1 0x20 PUSH1 0x1F DUP4 ADD DIV SWAP1 POP SWAP2 SWAP1 POP JUMP JUMPDEST PUSH0 DUP3 DUP3 SHL SWAP1 POP SWAP3 SWAP2 POP POP JUMP JUMPDEST PUSH0 PUSH1 0x8 DUP4 MUL PUSH3 0x2F7 PUSH32 0xFFFFFFFFFFFFFFFFFFFFFFFFFFFFFFFFFFFFFFFFFFFFFFFFFFFFFFFFFFFFFFFF DUP3 PUSH3 0x2BA JUMP JUMPDEST PUSH3 0x303 DUP7 DUP4 PUSH3 0x2BA JUMP JUMPDEST SWAP6 POP DUP1 NOT DUP5 AND SWAP4 POP DUP1 DUP7 AND DUP5 OR SWAP3 POP POP POP SWAP4 SWAP3 POP POP POP JUMP JUMPDEST PUSH0 DUP2 SWAP1 POP SWAP2 SWAP1 POP JUMP JUMPDEST PUSH0 DUP2 SWAP1 POP SWAP2 SWAP1 POP JUMP JUMPDEST PUSH0 PUSH3 0x34D PUSH3 0x347 PUSH3 0x341 DUP5 PUSH3 0x31B JUMP JUMPDEST PUSH3 0x324 JUMP JUMPDEST PUSH3 0x31B JUMP JUMPDEST SWAP1 POP SWAP2 SWAP1 POP JUMP JUMPDEST PUSH0 DUP2 SWAP1 POP SWAP2 SWAP1 POP JUMP JUMPDEST PUSH3 0x368 DUP4 PUSH3 0x32D JUMP JUMPDEST PUSH3 0x380 PUSH3 0x377 DUP3 PUSH3 0x354 JUMP JUMPDEST DUP5 DUP5 SLOAD PUSH3 0x2C6 JUMP JUMPDEST DUP3 SSTORE POP POP POP POP JUMP JUMPDEST PUSH0 SWAP1 JUMP JUMPDEST PUSH3 0x396 PUSH3 0x388 JUMP JUMPDEST PUSH3 0x3A3 DUP2 DUP5 DUP5 PUSH3 0x35D JUMP JUMPDEST POP POP POP JUMP JUMPDEST JUMPDEST DUP2 DUP2 LT ISZERO PUSH3 0x3CA JUMPI PUSH3 0x3BE PUSH0 DUP3 PUSH3 0x38C JUMP JUMPDEST PUSH1 0x1 DUP2 ADD SWAP1 POP PUSH3 0x3A9 JUMP JUMPDEST POP POP JUMP JUMPDEST PUSH1 0x1F DUP3 GT ISZERO PUSH3 0x419 JUMPI PUSH3 0x3E3 DUP2 PUSH3 0x299 JUMP JUMPDEST PUSH3 0x3EE DUP5 PUSH3 0x2AB JUMP JUMPDEST DUP2 ADD PUSH1 0x20 DUP6 LT ISZERO PUSH3 0x3FE JUMPI DUP2 SWAP1 POP JUMPDEST PUSH3 0x416 PUSH3 0x40D DUP6 PUSH3 0x2AB JUMP JUMPDEST DUP4 ADD DUP3 PUSH3 0x3A8 JUMP JUMPDEST POP POP JUMPDEST POP POP POP JUMP JUMPDEST PUSH0 DUP3 DUP3 SHR SWAP1 POP SWAP3 SWAP2 POP POP JUMP JUMPDEST PUSH0 PUSH3 0x43B PUSH0 NOT DUP5 PUSH1 0x8 MUL PUSH3 0x41E JUMP JUMPDEST NOT DUP1 DUP4 AND SWAP2 POP POP SWAP3 SWAP2 POP POP JUMP JUMPDEST PUSH0 PUSH3 0x455 DUP4 DUP4 PUSH3 0x42A JUMP JUMPDEST SWAP2 POP DUP3 PUSH1 0x2 MUL DUP3 OR SWAP1 POP SWAP3 SWAP2 POP POP JUMP JUMPDEST PUSH3 0x470 DUP3 PUSH3 0x201 JUMP JUMPDEST PUSH8 0xFFFFFFFFFFFFFFFF DUP2 GT ISZERO PUSH3 0x48C JUMPI PUSH3 0x48B PUSH3 0x20B JUMP JUMPDEST JUMPDEST PUSH3 0x498 DUP3 SLOAD PUSH3 0x265 JUMP JUMPDEST PUSH3 0x4A5 DUP3 DUP3 DUP6 PUSH3 0x3CE JUMP JUMPDEST PUSH0 PUSH1 0x20 SWAP1 POP PUSH1 0x1F DUP4 GT PUSH1 0x1 DUP2 EQ PUSH3 0x4DB JUMPI PUSH0 DUP5 ISZERO PUSH3 0x4C6 JUMPI DUP3 DUP8 ADD MLOAD SWAP1 POP JUMPDEST PUSH3 0x4D2 DUP6 DUP3 PUSH3 0x448 JUMP JUMPDEST DUP7 SSTORE POP PUSH3 0x541 JUMP JUMPDEST PUSH1 0x1F NOT DUP5 AND PUSH3 0x4EB DUP7 PUSH3 0x299 JUMP JUMPDEST PUSH0 JUMPDEST DUP3 DUP2 LT ISZERO PUSH3 0x514 JUMPI DUP5 DUP10 ADD MLOAD DUP3 SSTORE PUSH1 0x1 DUP3 ADD SWAP2 POP PUSH1 0x20 DUP6 ADD SWAP5 POP PUSH1 0x20 DUP2 ADD SWAP1 POP PUSH3 0x4ED JUMP JUMPDEST DUP7 DUP4 LT ISZERO PUSH3 0x534 JUMPI DUP5 DUP10 ADD MLOAD PUSH3 0x530 PUSH1 0x1F DUP10 AND DUP3 PUSH3 0x42A JUMP JUMPDEST DUP4 SSTORE POP JUMPDEST PUSH1 0x1 PUSH1 0x2 DUP9 MUL ADD DUP9 SSTORE POP POP POP JUMPDEST POP POP POP POP POP POP JUMP JUMPDEST PUSH32 0x4E487B7100000000000000000000000000000000000000000000000000000000 PUSH0 MSTORE PUSH1 0x11 PUSH1 0x4 MSTORE PUSH1 0x24 PUSH0 REVERT JUMPDEST PUSH0 PUSH3 0x582 DUP3 PUSH3 0x31B JUMP JUMPDEST SWAP2 POP PUSH3 0x58F DUP4 PUSH3 0x31B JUMP JUMPDEST SWAP3 POP DUP3 DUP3 ADD SWAP1 POP DUP1 DUP3 GT ISZERO PUSH3 0x5AA JUMPI PUSH3 0x5A9 PUSH3 0x549 JUMP JUMPDEST JUMPDEST SWAP3 SWAP2 POP POP JUMP JUMPDEST PUSH2 0x33F3 DUP1 PUSH3 0x5BE PUSH0 CODECOPY PUSH0 RETURN INVALID PUSH1 0x80 PUSH1 0x40 MSTORE PUSH1 0x4 CALLDATASIZE LT PUSH2 0x1CC JUMPI PUSH0 CALLDATALOAD PUSH1 0xE0 SHR DUP1 PUSH4 0x715018A6 GT PUSH2 0xF6 JUMPI DUP1 PUSH4 0xC23FCDEF GT PUSH2 0x94 JUMPI DUP1 PUSH4 0xD64297F9 GT PUSH2 0x63 JUMPI DUP1 PUSH4 0xD64297F9 EQ PUSH2 0x650 JUMPI DUP1 PUSH4 0xE5496FC8 EQ PUSH2 0x68C JUMPI DUP1 PUSH4 0xE985E9C5 EQ PUSH2 0x6C8 JUMPI DUP1 PUSH4 0xF2FDE38B EQ PUSH2 0x704 JUMPI PUSH2 0x1CC JUMP JUMPDEST DUP1 PUSH4 0xC23FCDEF EQ PUSH2 0x584 JUMPI DUP1 PUSH4 0xC285E107 EQ PUSH2 0x5C0 JUMPI DUP1 PUSH4 0xC87B56DD EQ PUSH2 0x5EA JUMPI DUP1 PUSH4 0xD304C4BC EQ PUSH2 0x626 JUMPI PUSH2 0x1CC JUMP JUMPDEST DUP1 PUSH4 0x9BD37E2C GT PUSH2 0xD0 JUMPI DUP1 PUSH4 0x9BD37E2C EQ PUSH2 0x4E0 JUMPI DUP1 PUSH4 0xA22CB465 EQ PUSH2 0x50A JUMPI DUP1 PUSH4 0xA6A3B5B4 EQ PUSH2 0x532 JUMPI DUP1 PUSH4 0xB88D4FDE EQ PUSH2 0x55C JUMPI PUSH2 0x1CC JUMP JUMPDEST DUP1 PUSH4 0x715018A6 EQ PUSH2 0x476 JUMPI DUP1 PUSH4 0x8DA5CB5B EQ PUSH2 0x48C JUMPI DUP1 PUSH4 0x95D89B41 EQ PUSH2 0x4B6 JUMPI PUSH2 0x1CC JUMP JUMPDEST DUP1 PUSH4 0x23B872DD GT PUSH2 0x16E JUMPI DUP1 PUSH4 0x42842E0E GT PUSH2 0x13D JUMPI DUP1 PUSH4 0x42842E0E EQ PUSH2 0x3AC JUMPI DUP1 PUSH4 0x6352211E EQ PUSH2 0x3D4 JUMPI DUP1 PUSH4 0x6817C76C EQ PUSH2 0x410 JUMPI DUP1 PUSH4 0x70A08231 EQ PUSH2 0x43A JUMPI PUSH2 0x1CC JUMP JUMPDEST DUP1 PUSH4 0x23B872DD EQ PUSH2 0x32A JUMPI DUP1 PUSH4 0x278ECDE1 EQ PUSH2 0x352 JUMPI DUP1 PUSH4 0x31C864E8 EQ PUSH2 0x37A JUMPI DUP1 PUSH4 0x3CCFD60B EQ PUSH2 0x396 JUMPI PUSH2 0x1CC JUMP JUMPDEST DUP1 PUSH4 0x81812FC GT PUSH2 0x1AA JUMPI DUP1 PUSH4 0x81812FC EQ PUSH2 0x272 JUMPI DUP1 PUSH4 0x95EA7B3 EQ PUSH2 0x2AE JUMPI DUP1 PUSH4 0xCB61F6C EQ PUSH2 0x2D6 JUMPI DUP1 PUSH4 0x18160DDD EQ PUSH2 0x300 JUMPI PUSH2 0x1CC JUMP JUMPDEST DUP1 PUSH4 0x1FFC9A7 EQ PUSH2 0x1D0 JUMPI DUP1 PUSH4 0x4CD5294 EQ PUSH2 0x20C JUMPI DUP1 PUSH4 0x6FDDE03 EQ PUSH2 0x248 JUMPI JUMPDEST PUSH0 DUP1 REVERT JUMPDEST CALLVALUE DUP1 ISZERO PUSH2 0x1DB JUMPI PUSH0 DUP1 REVERT JUMPDEST POP PUSH2 0x1F6 PUSH1 0x4 DUP1 CALLDATASIZE SUB DUP2 ADD SWAP1 PUSH2 0x1F1 SWAP2 SWAP1 PUSH2 0x26F2 JUMP JUMPDEST PUSH2 0x72C JUMP JUMPDEST PUSH1 0x40 MLOAD PUSH2 0x203 SWAP2 SWAP1 PUSH2 0x2737 JUMP JUMPDEST PUSH1 0x40 MLOAD DUP1 SWAP2 SUB SWAP1 RETURN JUMPDEST CALLVALUE DUP1 ISZERO PUSH2 0x217 JUMPI PUSH0 DUP1 REVERT JUMPDEST POP PUSH2 0x232 PUSH1 0x4 DUP1 CALLDATASIZE SUB DUP2 ADD SWAP1 PUSH2 0x22D SWAP2 SWAP1 PUSH2 0x2783 JUMP JUMPDEST PUSH2 0x80D JUMP JUMPDEST PUSH1 0x40 MLOAD PUSH2 0x23F SWAP2 SWAP1 PUSH2 0x27BD JUMP JUMPDEST PUSH1 0x40 MLOAD DUP1 SWAP2 SUB SWAP1 RETURN JUMPDEST CALLVALUE DUP1 ISZERO PUSH2 0x253 JUMPI PUSH0 DUP1 REVERT JUMPDEST POP PUSH2 0x25C PUSH2 0x84A JUMP JUMPDEST PUSH1 0x40 MLOAD PUSH2 0x269 SWAP2 SWAP1 PUSH2 0x2860 JUMP JUMPDEST PUSH1 0x40 MLOAD DUP1 SWAP2 SUB SWAP1 RETURN JUMPDEST CALLVALUE DUP1 ISZERO PUSH2 0x27D JUMPI PUSH0 DUP1 REVERT JUMPDEST POP PUSH2 0x298 PUSH1 0x4 DUP1 CALLDATASIZE SUB DUP2 ADD SWAP1 PUSH2 0x293 SWAP2 SWAP1 PUSH2 0x2783 JUMP JUMPDEST PUSH2 0x8DA JUMP JUMPDEST PUSH1 0x40 MLOAD PUSH2 0x2A5 SWAP2 SWAP1 PUSH2 0x28BF JUMP JUMPDEST PUSH1 0x40 MLOAD DUP1 SWAP2 SUB SWAP1 RETURN JUMPDEST CALLVALUE DUP1 ISZERO PUSH2 0x2B9 JUMPI PUSH0 DUP1 REVERT JUMPDEST POP PUSH2 0x2D4 PUSH1 0x4 DUP1 CALLDATASIZE SUB DUP2 ADD SWAP1 PUSH2 0x2CF SWAP2 SWAP1 PUSH2 0x2902 JUMP JUMPDEST PUSH2 0x952 JUMP JUMPDEST STOP JUMPDEST CALLVALUE DUP1 ISZERO PUSH2 0x2E1 JUMPI PUSH0 DUP1 REVERT JUMPDEST POP PUSH2 0x2EA PUSH2 0xA5B JUMP JUMPDEST PUSH1 0x40 MLOAD PUSH2 0x2F7 SWAP2 SWAP1 PUSH2 0x28BF JUMP JUMPDEST PUSH1 0x40 MLOAD DUP1 SWAP2 SUB SWAP1 RETURN JUMPDEST CALLVALUE DUP1 ISZERO PUSH2 0x30B JUMPI PUSH0 DUP1 REVERT JUMPDEST POP PUSH2 0x314 PUSH2 0xA80 JUMP JUMPDEST PUSH1 0x40 MLOAD PUSH2 0x321 SWAP2 SWAP1 PUSH2 0x27BD JUMP JUMPDEST PUSH1 0x40 MLOAD DUP1 SWAP2 SUB SWAP1 RETURN JUMPDEST CALLVALUE DUP1 ISZERO PUSH2 0x335 JUMPI PUSH0 DUP1 REVERT JUMPDEST POP PUSH2 0x350 PUSH1 0x4 DUP1 CALLDATASIZE SUB DUP2 ADD SWAP1 PUSH2 0x34B SWAP2 SWAP1 PUSH2 0x2940 JUMP JUMPDEST PUSH2 0xA95 JUMP JUMPDEST STOP JUMPDEST CALLVALUE DUP1 ISZERO PUSH2 0x35D JUMPI PUSH0 DUP1 REVERT JUMPDEST POP PUSH2 0x378 PUSH1 0x4 DUP1 CALLDATASIZE SUB DUP2 ADD SWAP1 PUSH2 0x373 SWAP2 SWAP1 PUSH2 0x2783 JUMP JUMPDEST PUSH2 0xAA5 JUMP JUMPDEST STOP JUMPDEST PUSH2 0x394 PUSH1 0x4 DUP1 CALLDATASIZE SUB DUP2 ADD SWAP1 PUSH2 0x38F SWAP2 SWAP1 PUSH2 0x2783 JUMP JUMPDEST PUSH2 0xBD4 JUMP JUMPDEST STOP JUMPDEST CALLVALUE DUP1 ISZERO PUSH2 0x3A1 JUMPI PUSH0 DUP1 REVERT JUMPDEST POP PUSH2 0x3AA PUSH2 0xD3D JUMP JUMPDEST STOP JUMPDEST CALLVALUE DUP1 ISZERO PUSH2 0x3B7 JUMPI PUSH0 DUP1 REVERT JUMPDEST POP PUSH2 0x3D2 PUSH1 0x4 DUP1 CALLDATASIZE SUB DUP2 ADD SWAP1 PUSH2 0x3CD SWAP2 SWAP1 PUSH2 0x2940 JUMP JUMPDEST PUSH2 0xD9A JUMP JUMPDEST STOP JUMPDEST CALLVALUE DUP1 ISZERO PUSH2 0x3DF JUMPI PUSH0 DUP1 REVERT JUMPDEST POP PUSH2 0x3FA PUSH1 0x4 DUP1 CALLDATASIZE SUB DUP2 ADD SWAP1 PUSH2 0x3F5 SWAP2 SWAP1 PUSH2 0x2783 JUMP JUMPDEST PUSH2 0xDB9 JUMP JUMPDEST PUSH1 0x40 MLOAD PUSH2 0x407 SWAP2 SWAP1 PUSH2 0x28BF JUMP JUMPDEST PUSH1 0x40 MLOAD DUP1 SWAP2 SUB SWAP1 RETURN JUMPDEST CALLVALUE DUP1 ISZERO PUSH2 0x41B JUMPI PUSH0 DUP1 REVERT JUMPDEST POP PUSH2 0x424 PUSH2 0xDCD JUMP JUMPDEST PUSH1 0x40 MLOAD PUSH2 0x431 SWAP2 SWAP1 PUSH2 0x27BD JUMP JUMPDEST PUSH1 0x40 MLOAD DUP1 SWAP2 SUB SWAP1 RETURN JUMPDEST CALLVALUE DUP1 ISZERO PUSH2 0x445 JUMPI PUSH0 DUP1 REVERT JUMPDEST POP PUSH2 0x460 PUSH1 0x4 DUP1 CALLDATASIZE SUB DUP2 ADD SWAP1 PUSH2 0x45B SWAP2 SWAP1 PUSH2 0x2990 JUMP JUMPDEST PUSH2 0xDD9 JUMP JUMPDEST PUSH1 0x40 MLOAD PUSH2 0x46D SWAP2 SWAP1 PUSH2 0x27BD JUMP JUMPDEST PUSH1 0x40 MLOAD DUP1 SWAP2 SUB SWAP1 RETURN JUMPDEST CALLVALUE DUP1 ISZERO PUSH2 0x481 JUMPI PUSH0 DUP1 REVERT JUMPDEST POP PUSH2 0x48A PUSH2 0xEA3 JUMP JUMPDEST STOP JUMPDEST CALLVALUE DUP1 ISZERO PUSH2 0x497 JUMPI PUSH0 DUP1 REVERT JUMPDEST POP PUSH2 0x4A0 PUSH2 0xEB6 JUMP JUMPDEST PUSH1 0x40 MLOAD PUSH2 0x4AD SWAP2 SWAP1 PUSH2 0x28BF JUMP JUMPDEST PUSH1 0x40 MLOAD DUP1 SWAP2 SUB SWAP1 RETURN JUMPDEST CALLVALUE DUP1 ISZERO PUSH2 0x4C1 JUMPI PUSH0 DUP1 REVERT JUMPDEST POP PUSH2 0x4CA PUSH2 0xEDE JUMP JUMPDEST PUSH1 0x40 MLOAD PUSH2 0x4D7 SWAP2 SWAP1 PUSH2 0x2860 JUMP JUMPDEST PUSH1 0x40 MLOAD DUP1 SWAP2 SUB SWAP1 RETURN JUMPDEST CALLVALUE DUP1 ISZERO PUSH2 0x4EB JUMPI PUSH0 DUP1 REVERT JUMPDEST POP PUSH2 0x4F4 PUSH2 0xF6E JUMP JUMPDEST PUSH1 0x40 MLOAD PUSH2 0x501 SWAP2 SWAP1 PUSH2 0x27BD JUMP JUMPDEST PUSH1 0x40 MLOAD DUP1 SWAP2 SUB SWAP1 RETURN JUMPDEST CALLVALUE DUP1 ISZERO PUSH2 0x515 JUMPI PUSH0 DUP1 REVERT JUMPDEST POP PUSH2 0x530 PUSH1 0x4 DUP1 CALLDATASIZE SUB DUP2 ADD SWAP1 PUSH2 0x52B SWAP2 SWAP1 PUSH2 0x29E5 JUMP JUMPDEST PUSH2 0xF74 JUMP JUMPDEST STOP JUMPDEST CALLVALUE DUP1 ISZERO PUSH2 0x53D JUMPI PUSH0 DUP1 REVERT JUMPDEST POP PUSH2 0x546 PUSH2 0x10E6 JUMP JUMPDEST PUSH1 0x40 MLOAD PUSH2 0x553 SWAP2 SWAP1 PUSH2 0x27BD JUMP JUMPDEST PUSH1 0x40 MLOAD DUP1 SWAP2 SUB SWAP1 RETURN JUMPDEST CALLVALUE DUP1 ISZERO PUSH2 0x567 JUMPI PUSH0 DUP1 REVERT JUMPDEST POP PUSH2 0x582 PUSH1 0x4 DUP1 CALLDATASIZE SUB DUP2 ADD SWAP1 PUSH2 0x57D SWAP2 SWAP1 PUSH2 0x2B4F JUMP JUMPDEST PUSH2 0x10EB JUMP JUMPDEST STOP JUMPDEST CALLVALUE DUP1 ISZERO PUSH2 0x58F JUMPI PUSH0 DUP1 REVERT JUMPDEST POP PUSH2 0x5AA PUSH1 0x4 DUP1 CALLDATASIZE SUB DUP2 ADD SWAP1 PUSH2 0x5A5 SWAP2 SWAP1 PUSH2 0x2783 JUMP JUMPDEST PUSH2 0x1167 JUMP JUMPDEST PUSH1 0x40 MLOAD PUSH2 0x5B7 SWAP2 SWAP1 PUSH2 0x2737 JUMP JUMPDEST PUSH1 0x40 MLOAD DUP1 SWAP2 SUB SWAP1 RETURN JUMPDEST CALLVALUE DUP1 ISZERO PUSH2 0x5CB JUMPI PUSH0 DUP1 REVERT JUMPDEST POP PUSH2 0x5D4 PUSH2 0x1184 JUMP JUMPDEST PUSH1 0x40 MLOAD PUSH2 0x5E1 SWAP2 SWAP1 PUSH2 0x27BD JUMP JUMPDEST PUSH1 0x40 MLOAD DUP1 SWAP2 SUB SWAP1 RETURN JUMPDEST CALLVALUE DUP1 ISZERO PUSH2 0x5F5 JUMPI PUSH0 DUP1 REVERT JUMPDEST POP PUSH2 0x610 PUSH1 0x4 DUP1 CALLDATASIZE SUB DUP2 ADD SWAP1 PUSH2 0x60B SWAP2 SWAP1 PUSH2 0x2783 JUMP JUMPDEST PUSH2 0x1189 JUMP JUMPDEST PUSH1 0x40 MLOAD PUSH2 0x61D SWAP2 SWAP1 PUSH2 0x2860 JUMP JUMPDEST PUSH1 0x40 MLOAD DUP1 SWAP2 SUB SWAP1 RETURN JUMPDEST CALLVALUE DUP1 ISZERO PUSH2 0x631 JUMPI PUSH0 DUP1 REVERT JUMPDEST POP PUSH2 0x63A PUSH2 0x1224 JUMP JUMPDEST PUSH1 0x40 MLOAD PUSH2 0x647 SWAP2 SWAP1 PUSH2 0x27BD JUMP JUMPDEST PUSH1 0x40 MLOAD DUP1 SWAP2 SUB SWAP1 RETURN JUMPDEST CALLVALUE DUP1 ISZERO PUSH2 0x65B JUMPI PUSH0 DUP1 REVERT JUMPDEST POP PUSH2 0x676 PUSH1 0x4 DUP1 CALLDATASIZE SUB DUP2 ADD SWAP1 PUSH2 0x671 SWAP2 SWAP1 PUSH2 0x2783 JUMP JUMPDEST PUSH2 0x1229 JUMP JUMPDEST PUSH1 0x40 MLOAD PUSH2 0x683 SWAP2 SWAP1 PUSH2 0x27BD JUMP JUMPDEST PUSH1 0x40 MLOAD DUP1 SWAP2 SUB SWAP1 RETURN JUMPDEST CALLVALUE DUP1 ISZERO PUSH2 0x697 JUMPI PUSH0 DUP1 REVERT JUMPDEST POP PUSH2 0x6B2 PUSH1 0x4 DUP1 CALLDATASIZE SUB DUP2 ADD SWAP1 PUSH2 0x6AD SWAP2 SWAP1 PUSH2 0x2783 JUMP JUMPDEST PUSH2 0x123E JUMP JUMPDEST PUSH1 0x40 MLOAD PUSH2 0x6BF SWAP2 SWAP1 PUSH2 0x27BD JUMP JUMPDEST PUSH1 0x40 MLOAD DUP1 SWAP2 SUB SWAP1 RETURN JUMPDEST CALLVALUE DUP1 ISZERO PUSH2 0x6D3 JUMPI PUSH0 DUP1 REVERT JUMPDEST POP PUSH2 0x6EE PUSH1 0x4 DUP1 CALLDATASIZE SUB DUP2 ADD SWAP1 PUSH2 0x6E9 SWAP2 SWAP1 PUSH2 0x2BCF JUMP JUMPDEST PUSH2 0x1284 JUMP JUMPDEST PUSH1 0x40 MLOAD PUSH2 0x6FB SWAP2 SWAP1 PUSH2 0x2737 JUMP JUMPDEST PUSH1 0x40 MLOAD DUP1 SWAP2 SUB SWAP1 RETURN JUMPDEST CALLVALUE DUP1 ISZERO PUSH2 0x70F JUMPI PUSH0 DUP1 REVERT JUMPDEST POP PUSH2 0x72A PUSH1 0x4 DUP1 CALLDATASIZE SUB DUP2 ADD SWAP1 PUSH2 0x725 SWAP2 SWAP1 PUSH2 0x2990 JUMP JUMPDEST PUSH2 0x1312 JUMP JUMPDEST STOP JUMPDEST PUSH0 PUSH32 0x80AC58CD00000000000000000000000000000000000000000000000000000000 PUSH28 0xFFFFFFFFFFFFFFFFFFFFFFFFFFFFFFFFFFFFFFFFFFFFFFFFFFFFFFFF NOT AND DUP3 PUSH28 0xFFFFFFFFFFFFFFFFFFFFFFFFFFFFFFFFFFFFFFFFFFFFFFFFFFFFFFFF NOT AND EQ DUP1 PUSH2 0x7F6 JUMPI POP PUSH32 0x5B5E139F00000000000000000000000000000000000000000000000000000000 PUSH28 0xFFFFFFFFFFFFFFFFFFFFFFFFFFFFFFFFFFFFFFFFFFFFFFFFFFFFFFFF NOT AND DUP3 PUSH28 0xFFFFFFFFFFFFFFFFFFFFFFFFFFFFFFFFFFFFFFFFFFFFFFFFFFFFFFFF NOT AND EQ JUMPDEST DUP1 PUSH2 0x806 JUMPI POP PUSH2 0x805 DUP3 PUSH2 0x1394 JUMP JUMPDEST JUMPDEST SWAP1 POP SWAP2 SWAP1 POP JUMP JUMPDEST PUSH0 PUSH1 0xC PUSH0 DUP4 DUP2 MSTORE PUSH1 0x20 ADD SWAP1 DUP2 MSTORE PUSH1 0x20 ADD PUSH0 KECCAK256 PUSH0 SWAP1 SLOAD SWAP1 PUSH2 0x100 EXP SWAP1 DIV PUSH1 0xFF AND ISZERO PUSH2 0x839 JUMPI PUSH0 SWAP1 POP PUSH2 0x845 JUMP JUMPDEST PUSH8 0xDE0B6B3A7640000 SWAP1 POP JUMPDEST SWAP2 SWAP1 POP JUMP JUMPDEST PUSH1 0x60 PUSH1 0x2 DUP1 SLOAD PUSH2 0x859 SWAP1 PUSH2 0x2C3A JUMP JUMPDEST DUP1 PUSH1 0x1F ADD PUSH1 0x20 DUP1 SWAP2 DIV MUL PUSH1 0x20 ADD PUSH1 0x40 MLOAD SWAP1 DUP2 ADD PUSH1 0x40 MSTORE DUP1 SWAP3 SWAP2 SWAP1 DUP2 DUP2 MSTORE PUSH1 0x20 ADD DUP3 DUP1 SLOAD PUSH2 0x885 SWAP1 PUSH2 0x2C3A JUMP JUMPDEST DUP1 ISZERO PUSH2 0x8D0 JUMPI DUP1 PUSH1 0x1F LT PUSH2 0x8A7 JUMPI PUSH2 0x100 DUP1 DUP4 SLOAD DIV MUL DUP4 MSTORE SWAP2 PUSH1 0x20 ADD SWAP2 PUSH2 0x8D0 JUMP JUMPDEST DUP3 ADD SWAP2 SWAP1 PUSH0 MSTORE PUSH1 0x20 PUSH0 KECCAK256 SWAP1 JUMPDEST DUP2 SLOAD DUP2 MSTORE SWAP1 PUSH1 0x1 ADD SWAP1 PUSH1 0x20 ADD DUP1 DUP4 GT PUSH2 0x8B3 JUMPI DUP3 SWAP1 SUB PUSH1 0x1F AND DUP3 ADD SWAP2 JUMPDEST POP POP POP POP POP SWAP1 POP SWAP1 JUMP JUMPDEST PUSH0 PUSH2 0x8E4 DUP3 PUSH2 0x13FD JUMP JUMPDEST PUSH2 0x91A JUMPI PUSH1 0x40 MLOAD PUSH32 0xCF4700E400000000000000000000000000000000000000000000000000000000 DUP2 MSTORE PUSH1 0x4 ADD PUSH1 0x40 MLOAD DUP1 SWAP2 SUB SWAP1 REVERT JUMPDEST PUSH1 0x6 PUSH0 DUP4 DUP2 MSTORE PUSH1 0x20 ADD SWAP1 DUP2 MSTORE PUSH1 0x20 ADD PUSH0 KECCAK256 PUSH0 SWAP1 SLOAD SWAP1 PUSH2 0x100 EXP SWAP1 DIV PUSH20 0xFFFFFFFFFFFFFFFFFFFFFFFFFFFFFFFFFFFFFFFF AND SWAP1 POP SWAP2 SWAP1 POP JUMP JUMPDEST PUSH0 PUSH2 0x95C DUP3 PUSH2 0xDB9 JUMP JUMPDEST SWAP1 POP DUP1 PUSH20 0xFFFFFFFFFFFFFFFFFFFFFFFFFFFFFFFFFFFFFFFF AND DUP4 PUSH20 0xFFFFFFFFFFFFFFFFFFFFFFFFFFFFFFFFFFFFFFFF AND SUB PUSH2 0x9C3 JUMPI PUSH1 0x40 MLOAD PUSH32 0x943F7B8C00000000000000000000000000000000000000000000000000000000 DUP2 MSTORE PUSH1 0x4 ADD PUSH1 0x40 MLOAD DUP1 SWAP2 SUB SWAP1 REVERT JUMPDEST DUP1 PUSH20 0xFFFFFFFFFFFFFFFFFFFFFFFFFFFFFFFFFFFFFFFF AND PUSH2 0x9E2 PUSH2 0x1446 JUMP JUMPDEST PUSH20 0xFFFFFFFFFFFFFFFFFFFFFFFFFFFFFFFFFFFFFFFF AND EQ ISZERO DUP1 ISZERO PUSH2 0xA14 JUMPI POP PUSH2 0xA12 DUP2 PUSH2 0xA0D PUSH2 0x1446 JUMP JUMPDEST PUSH2 0x1284 JUMP JUMPDEST ISZERO JUMPDEST ISZERO PUSH2 0xA4B JUMPI PUSH1 0x40 MLOAD PUSH32 0xCFB3B94200000000000000000000000000000000000000000000000000000000 DUP2 MSTORE PUSH1 0x4 ADD PUSH1 0x40 MLOAD DUP1 SWAP2 SUB SWAP1 REVERT JUMPDEST PUSH2 0xA56 DUP4 DUP4 DUP4 PUSH2 0x144D JUMP JUMPDEST POP POP POP JUMP JUMPDEST PUSH1 0xA PUSH0 SWAP1 SLOAD SWAP1 PUSH2 0x100 EXP SWAP1 DIV PUSH20 0xFFFFFFFFFFFFFFFFFFFFFFFFFFFFFFFFFFFFFFFF AND DUP2 JUMP JUMPDEST PUSH0 PUSH2 0xA89 PUSH2 0x14FC JUMP JUMPDEST PUSH1 0x1 SLOAD PUSH0 SLOAD SUB SUB SWAP1 POP SWAP1 JUMP JUMPDEST PUSH2 0xAA0 DUP4 DUP4 DUP4 PUSH2 0x1500 JUMP JUMPDEST POP POP POP JUMP JUMPDEST PUSH2 0xAAE DUP2 PUSH2 0x123E JUMP JUMPDEST TIMESTAMP LT PUSH2 0xAEF JUMPI PUSH1 0x40 MLOAD PUSH32 0x8C379A000000000000000000000000000000000000000000000000000000000 DUP2 MSTORE PUSH1 0x4 ADD PUSH2 0xAE6 SWAP1 PUSH2 0x2CB4 JUMP JUMPDEST PUSH1 0x40 MLOAD DUP1 SWAP2 SUB SWAP1 REVERT JUMPDEST PUSH2 0xAF8 DUP2 PUSH2 0xDB9 JUMP JUMPDEST PUSH20 0xFFFFFFFFFFFFFFFFFFFFFFFFFFFFFFFFFFFFFFFF AND CALLER PUSH20 0xFFFFFFFFFFFFFFFFFFFFFFFFFFFFFFFFFFFFFFFF AND EQ PUSH2 0xB65 JUMPI PUSH1 0x40 MLOAD PUSH32 0x8C379A000000000000000000000000000000000000000000000000000000000 DUP2 MSTORE PUSH1 0x4 ADD PUSH2 0xB5C SWAP1 PUSH2 0x2D1C JUMP JUMPDEST PUSH1 0x40 MLOAD DUP1 SWAP2 SUB SWAP1 REVERT JUMPDEST PUSH0 PUSH2 0xB6F DUP3 PUSH2 0x80D JUMP JUMPDEST SWAP1 POP PUSH2 0xB9D CALLER PUSH1 0xA PUSH0 SWAP1 SLOAD SWAP1 PUSH2 0x100 EXP SWAP1 DIV PUSH20 0xFFFFFFFFFFFFFFFFFFFFFFFFFFFFFFFFFFFFFFFF AND DUP5 PUSH2 0x1500 JUMP JUMPDEST PUSH1 0x1 PUSH1 0xC PUSH0 DUP5 DUP2 MSTORE PUSH1 0x20 ADD SWAP1 DUP2 MSTORE PUSH1 0x20 ADD PUSH0 KECCAK256 PUSH0 PUSH2 0x100 EXP DUP2 SLOAD DUP2 PUSH1 0xFF MUL NOT AND SWAP1 DUP4 ISZERO ISZERO MUL OR SWAP1 SSTORE POP PUSH2 0xBD0 CALLER DUP3 PUSH2 0x1996 JUMP JUMPDEST POP POP JUMP JUMPDEST PUSH8 0xDE0B6B3A7640000 DUP2 PUSH2 0xBE8 SWAP2 SWAP1 PUSH2 0x2D67 JUMP JUMPDEST CALLVALUE LT ISZERO PUSH2 0xC2A JUMPI PUSH1 0x40 MLOAD PUSH32 0x8C379A000000000000000000000000000000000000000000000000000000000 DUP2 MSTORE PUSH1 0x4 ADD PUSH2 0xC21 SWAP1 PUSH2 0x2DF2 JUMP JUMPDEST PUSH1 0x40 MLOAD DUP1 SWAP2 SUB SWAP1 REVERT JUMPDEST PUSH1 0x5 DUP2 PUSH2 0xC36 CALLER PUSH2 0x1A86 JUMP JUMPDEST PUSH2 0xC40 SWAP2 SWAP1 PUSH2 0x2E10 JUMP JUMPDEST GT ISZERO PUSH2 0xC81 JUMPI PUSH1 0x40 MLOAD PUSH32 0x8C379A000000000000000000000000000000000000000000000000000000000 DUP2 MSTORE PUSH1 0x4 ADD PUSH2 0xC78 SWAP1 PUSH2 0x2E8D JUMP JUMPDEST PUSH1 0x40 MLOAD DUP1 SWAP2 SUB SWAP1 REVERT JUMPDEST PUSH1 0x64 DUP2 PUSH2 0xC8C PUSH2 0x1AEC JUMP JUMPDEST PUSH2 0xC96 SWAP2 SWAP1 PUSH2 0x2E10 JUMP JUMPDEST GT ISZERO PUSH2 0xCD7 JUMPI PUSH1 0x40 MLOAD PUSH32 0x8C379A000000000000000000000000000000000000000000000000000000000 DUP2 MSTORE PUSH1 0x4 ADD PUSH2 0xCCE SWAP1 PUSH2 0x2EF5 JUMP JUMPDEST PUSH1 0x40 MLOAD DUP1 SWAP2 SUB SWAP1 REVERT JUMPDEST PUSH2 0xCE1 CALLER DUP3 PUSH2 0x1AFD JUMP JUMPDEST PUSH1 0xB4 TIMESTAMP PUSH2 0xCEE SWAP2 SWAP1 PUSH2 0x2E10 JUMP JUMPDEST PUSH1 0x9 DUP2 SWAP1 SSTORE POP PUSH0 DUP2 PUSH0 SLOAD PUSH2 0xD02 SWAP2 SWAP1 PUSH2 0x2F13 JUMP JUMPDEST SWAP1 POP JUMPDEST PUSH0 SLOAD DUP2 LT ISZERO PUSH2 0xD39 JUMPI PUSH1 0x9 SLOAD PUSH1 0xB PUSH0 DUP4 DUP2 MSTORE PUSH1 0x20 ADD SWAP1 DUP2 MSTORE PUSH1 0x20 ADD PUSH0 KECCAK256 DUP2 SWAP1 SSTORE POP DUP1 DUP1 PUSH2 0xD31 SWAP1 PUSH2 0x2F46 JUMP JUMPDEST SWAP2 POP POP PUSH2 0xD05 JUMP JUMPDEST POP POP JUMP JUMPDEST PUSH2 0xD45 PUSH2 0x1B1A JUMP JUMPDEST PUSH1 0x9 SLOAD TIMESTAMP GT PUSH2 0xD89 JUMPI PUSH1 0x40 MLOAD PUSH32 0x8C379A000000000000000000000000000000000000000000000000000000000 DUP2 MSTORE PUSH1 0x4 ADD PUSH2 0xD80 SWAP1 PUSH2 0x2FD7 JUMP JUMPDEST PUSH1 0x40 MLOAD DUP1 SWAP2 SUB SWAP1 REVERT JUMPDEST PUSH0 SELFBALANCE SWAP1 POP PUSH2 0xD97 CALLER DUP3 PUSH2 0x1996 JUMP JUMPDEST POP JUMP JUMPDEST PUSH2 0xDB4 DUP4 DUP4 DUP4 PUSH1 0x40 MLOAD DUP1 PUSH1 0x20 ADD PUSH1 0x40 MSTORE DUP1 PUSH0 DUP2 MSTORE POP PUSH2 0x10EB JUMP JUMPDEST POP POP POP JUMP JUMPDEST PUSH0 PUSH2 0xDC3 DUP3 PUSH2 0x1B98 JUMP JUMPDEST PUSH0 ADD MLOAD SWAP1 POP SWAP2 SWAP1 POP JUMP JUMPDEST PUSH8 0xDE0B6B3A7640000 DUP2 JUMP JUMPDEST PUSH0 DUP1 PUSH20 0xFFFFFFFFFFFFFFFFFFFFFFFFFFFFFFFFFFFFFFFF AND DUP3 PUSH20 0xFFFFFFFFFFFFFFFFFFFFFFFFFFFFFFFFFFFFFFFF AND SUB PUSH2 0xE3F JUMPI PUSH1 0x40 MLOAD PUSH32 0x8F4EB60400000000000000000000000000000000000000000000000000000000 DUP2 MSTORE PUSH1 0x4 ADD PUSH1 0x40 MLOAD DUP1 SWAP2 SUB SWAP1 REVERT JUMPDEST PUSH1 0x5 PUSH0 DUP4 PUSH20 0xFFFFFFFFFFFFFFFFFFFFFFFFFFFFFFFFFFFFFFFF AND PUSH20 0xFFFFFFFFFFFFFFFFFFFFFFFFFFFFFFFFFFFFFFFF AND DUP2 MSTORE PUSH1 0x20 ADD SWAP1 DUP2 MSTORE PUSH1 0x20 ADD PUSH0 KECCAK256 PUSH0 ADD PUSH0 SWAP1 SLOAD SWAP1 PUSH2 0x100 EXP SWAP1 DIV PUSH8 0xFFFFFFFFFFFFFFFF AND PUSH8 0xFFFFFFFFFFFFFFFF AND SWAP1 POP SWAP2 SWAP1 POP JUMP JUMPDEST PUSH2 0xEAB PUSH2 0x1B1A JUMP JUMPDEST PUSH2 0xEB4 PUSH0 PUSH2 0x1E14 JUMP JUMPDEST JUMP JUMPDEST PUSH0 PUSH1 0x8 PUSH0 SWAP1 SLOAD SWAP1 PUSH2 0x100 EXP SWAP1 DIV PUSH20 0xFFFFFFFFFFFFFFFFFFFFFFFFFFFFFFFFFFFFFFFF AND SWAP1 POP SWAP1 JUMP JUMPDEST PUSH1 0x60 PUSH1 0x3 DUP1 SLOAD PUSH2 0xEED SWAP1 PUSH2 0x2C3A JUMP JUMPDEST DUP1 PUSH1 0x1F ADD PUSH1 0x20 DUP1 SWAP2 DIV MUL PUSH1 0x20 ADD PUSH1 0x40 MLOAD SWAP1 DUP2 ADD PUSH1 0x40 MSTORE DUP1 SWAP3 SWAP2 SWAP1 DUP2 DUP2 MSTORE PUSH1 0x20 ADD DUP3 DUP1 SLOAD PUSH2 0xF19 SWAP1 PUSH2 0x2C3A JUMP JUMPDEST DUP1 ISZERO PUSH2 0xF64 JUMPI DUP1 PUSH1 0x1F LT PUSH2 0xF3B JUMPI PUSH2 0x100 DUP1 DUP4 SLOAD DIV MUL DUP4 MSTORE SWAP2 PUSH1 0x20 ADD SWAP2 PUSH2 0xF64 JUMP JUMPDEST DUP3 ADD SWAP2 SWAP1 PUSH0 MSTORE PUSH1 0x20 PUSH0 KECCAK256 SWAP1 JUMPDEST DUP2 SLOAD DUP2 MSTORE SWAP1 PUSH1 0x1 ADD SWAP1 PUSH1 0x20 ADD DUP1 DUP4 GT PUSH2 0xF47 JUMPI DUP3 SWAP1 SUB PUSH1 0x1F AND DUP3 ADD SWAP2 JUMPDEST POP POP POP POP POP SWAP1 POP SWAP1 JUMP JUMPDEST PUSH1 0x9 SLOAD DUP2 JUMP JUMPDEST PUSH2 0xF7C PUSH2 0x1446 JUMP JUMPDEST PUSH20 0xFFFFFFFFFFFFFFFFFFFFFFFFFFFFFFFFFFFFFFFF AND DUP3 PUSH20 0xFFFFFFFFFFFFFFFFFFFFFFFFFFFFFFFFFFFFFFFF AND SUB PUSH2 0xFE0 JUMPI PUSH1 0x40 MLOAD PUSH32 0xB06307DB00000000000000000000000000000000000000000000000000000000 DUP2 MSTORE PUSH1 0x4 ADD PUSH1 0x40 MLOAD DUP1 SWAP2 SUB SWAP1 REVERT JUMPDEST DUP1 PUSH1 0x7 PUSH0 PUSH2 0xFEC PUSH2 0x1446 JUMP JUMPDEST PUSH20 0xFFFFFFFFFFFFFFFFFFFFFFFFFFFFFFFFFFFFFFFF AND PUSH20 0xFFFFFFFFFFFFFFFFFFFFFFFFFFFFFFFFFFFFFFFF AND DUP2 MSTORE PUSH1 0x20 ADD SWAP1 DUP2 MSTORE PUSH1 0x20 ADD PUSH0 KECCAK256 PUSH0 DUP5 PUSH20 0xFFFFFFFFFFFFFFFFFFFFFFFFFFFFFFFFFFFFFFFF AND PUSH20 0xFFFFFFFFFFFFFFFFFFFFFFFFFFFFFFFFFFFFFFFF AND DUP2 MSTORE PUSH1 0x20 ADD SWAP1 DUP2 MSTORE PUSH1 0x20 ADD PUSH0 KECCAK256 PUSH0 PUSH2 0x100 EXP DUP2 SLOAD DUP2 PUSH1 0xFF MUL NOT AND SWAP1 DUP4 ISZERO ISZERO MUL OR SWAP1 SSTORE POP DUP2 PUSH20 0xFFFFFFFFFFFFFFFFFFFFFFFFFFFFFFFFFFFFFFFF AND PUSH2 0x1095 PUSH2 0x1446 JUMP JUMPDEST PUSH20 0xFFFFFFFFFFFFFFFFFFFFFFFFFFFFFFFFFFFFFFFF AND PUSH32 0x17307EAB39AB6107E8899845AD3D59BD9653F200F220920489CA2B5937696C31 DUP4 PUSH1 0x40 MLOAD PUSH2 0x10DA SWAP2 SWAP1 PUSH2 0x2737 JUMP JUMPDEST PUSH1 0x40 MLOAD DUP1 SWAP2 SUB SWAP1 LOG3 POP POP JUMP JUMPDEST PUSH1 0xB4 DUP2 JUMP JUMPDEST PUSH2 0x10F6 DUP5 DUP5 DUP5 PUSH2 0x1500 JUMP JUMPDEST PUSH2 0x1115 DUP4 PUSH20 0xFFFFFFFFFFFFFFFFFFFFFFFFFFFFFFFFFFFFFFFF AND PUSH2 0x1ED7 JUMP JUMPDEST DUP1 ISZERO PUSH2 0x112A JUMPI POP PUSH2 0x1128 DUP5 DUP5 DUP5 DUP5 PUSH2 0x1EF9 JUMP JUMPDEST ISZERO JUMPDEST ISZERO PUSH2 0x1161 JUMPI PUSH1 0x40 MLOAD PUSH32 0xD1A57ED600000000000000000000000000000000000000000000000000000000 DUP2 MSTORE PUSH1 0x4 ADD PUSH1 0x40 MLOAD DUP1 SWAP2 SUB SWAP1 REVERT JUMPDEST POP POP POP POP JUMP JUMPDEST PUSH1 0xC PUSH1 0x20 MSTORE DUP1 PUSH0 MSTORE PUSH1 0x40 PUSH0 KECCAK256 PUSH0 SWAP2 POP SLOAD SWAP1 PUSH2 0x100 EXP SWAP1 DIV PUSH1 0xFF AND DUP2 JUMP JUMPDEST PUSH1 0x64 DUP2 JUMP JUMPDEST PUSH1 0x60 PUSH2 0x1194 DUP3 PUSH2 0x13FD JUMP JUMPDEST PUSH2 0x11CA JUMPI PUSH1 0x40 MLOAD PUSH32 0xA14C4B5000000000000000000000000000000000000000000000000000000000 DUP2 MSTORE PUSH1 0x4 ADD PUSH1 0x40 MLOAD DUP1 SWAP2 SUB SWAP1 REVERT JUMPDEST PUSH0 PUSH2 0x11D3 PUSH2 0x2044 JUMP JUMPDEST SWAP1 POP PUSH0 DUP2 MLOAD SUB PUSH2 0x11F1 JUMPI PUSH1 0x40 MLOAD DUP1 PUSH1 0x20 ADD PUSH1 0x40 MSTORE DUP1 PUSH0 DUP2 MSTORE POP PUSH2 0x121C JUMP JUMPDEST DUP1 PUSH2 0x11FB DUP5 PUSH2 0x2064 JUMP JUMPDEST PUSH1 0x40 MLOAD PUSH1 0x20 ADD PUSH2 0x120C SWAP3 SWAP2 SWAP1 PUSH2 0x302F JUMP JUMPDEST PUSH1 0x40 MLOAD PUSH1 0x20 DUP2 DUP4 SUB SUB DUP2 MSTORE SWAP1 PUSH1 0x40 MSTORE JUMPDEST SWAP2 POP POP SWAP2 SWAP1 POP JUMP JUMPDEST PUSH1 0x5 DUP2 JUMP JUMPDEST PUSH1 0xB PUSH1 0x20 MSTORE DUP1 PUSH0 MSTORE PUSH1 0x40 PUSH0 KECCAK256 PUSH0 SWAP2 POP SWAP1 POP SLOAD DUP2 JUMP JUMPDEST PUSH0 PUSH1 0xC PUSH0 DUP4 DUP2 MSTORE PUSH1 0x20 ADD SWAP1 DUP2 MSTORE PUSH1 0x20 ADD PUSH0 KECCAK256 PUSH0 SWAP1 SLOAD SWAP1 PUSH2 0x100 EXP SWAP1 DIV PUSH1 0xFF AND ISZERO PUSH2 0x126A JUMPI PUSH0 SWAP1 POP PUSH2 0x127F JUMP JUMPDEST PUSH1 0xB PUSH0 DUP4 DUP2 MSTORE PUSH1 0x20 ADD SWAP1 DUP2 MSTORE PUSH1 0x20 ADD PUSH0 KECCAK256 SLOAD SWAP1 POP JUMPDEST SWAP2 SWAP1 POP JUMP JUMPDEST PUSH0 PUSH1 0x7 PUSH0 DUP5 PUSH20 0xFFFFFFFFFFFFFFFFFFFFFFFFFFFFFFFFFFFFFFFF AND PUSH20 0xFFFFFFFFFFFFFFFFFFFFFFFFFFFFFFFFFFFFFFFF AND DUP2 MSTORE PUSH1 0x20 ADD SWAP1 DUP2 MSTORE PUSH1 0x20 ADD PUSH0 KECCAK256 PUSH0 DUP4 PUSH20 0xFFFFFFFFFFFFFFFFFFFFFFFFFFFFFFFFFFFFFFFF AND PUSH20 0xFFFFFFFFFFFFFFFFFFFFFFFFFFFFFFFFFFFFFFFF AND DUP2 MSTORE PUSH1 0x20 ADD SWAP1 DUP2 MSTORE PUSH1 0x20 ADD PUSH0 KECCAK256 PUSH0 SWAP1 SLOAD SWAP1 PUSH2 0x100 EXP SWAP1 DIV PUSH1 0xFF AND SWAP1 POP SWAP3 SWAP2 POP POP JUMP JUMPDEST PUSH2 0x131A PUSH2 0x1B1A JUMP JUMPDEST PUSH0 PUSH20 0xFFFFFFFFFFFFFFFFFFFFFFFFFFFFFFFFFFFFFFFF AND DUP2 PUSH20 0xFFFFFFFFFFFFFFFFFFFFFFFFFFFFFFFFFFFFFFFF AND SUB PUSH2 0x1388 JUMPI PUSH1 0x40 MLOAD PUSH32 0x8C379A000000000000000000000000000000000000000000000000000000000 DUP2 MSTORE PUSH1 0x4 ADD PUSH2 0x137F SWAP1 PUSH2 0x30C2 JUMP JUMPDEST PUSH1 0x40 MLOAD DUP1 SWAP2 SUB SWAP1 REVERT JUMPDEST PUSH2 0x1391 DUP2 PUSH2 0x1E14 JUMP JUMPDEST POP JUMP JUMPDEST PUSH0 PUSH32 0x1FFC9A700000000000000000000000000000000000000000000000000000000 PUSH28 0xFFFFFFFFFFFFFFFFFFFFFFFFFFFFFFFFFFFFFFFFFFFFFFFFFFFFFFFF NOT AND DUP3 PUSH28 0xFFFFFFFFFFFFFFFFFFFFFFFFFFFFFFFFFFFFFFFFFFFFFFFFFFFFFFFF NOT AND EQ SWAP1 POP SWAP2 SWAP1 POP JUMP JUMPDEST PUSH0 DUP2 PUSH2 0x1407 PUSH2 0x14FC JUMP JUMPDEST GT ISZERO DUP1 ISZERO PUSH2 0x1415 JUMPI POP PUSH0 SLOAD DUP3 LT JUMPDEST DUP1 ISZERO PUSH2 0x143F JUMPI POP PUSH1 0x4 PUSH0 DUP4 DUP2 MSTORE PUSH1 0x20 ADD SWAP1 DUP2 MSTORE PUSH1 0x20 ADD PUSH0 KECCAK256 PUSH0 ADD PUSH1 0x1C SWAP1 SLOAD SWAP1 PUSH2 0x100 EXP SWAP1 DIV PUSH1 0xFF AND ISZERO JUMPDEST SWAP1 POP SWAP2 SWAP1 POP JUMP JUMPDEST PUSH0 CALLER SWAP1 POP SWAP1 JUMP JUMPDEST DUP3 PUSH1 0x6 PUSH0 DUP5 DUP2 MSTORE PUSH1 0x20 ADD SWAP1 DUP2 MSTORE PUSH1 0x20 ADD PUSH0 KECCAK256 PUSH0 PUSH2 0x100 EXP DUP2 SLOAD DUP2 PUSH20 0xFFFFFFFFFFFFFFFFFFFFFFFFFFFFFFFFFFFFFFFF MUL NOT AND SWAP1 DUP4 PUSH20 0xFFFFFFFFFFFFFFFFFFFFFFFFFFFFFFFFFFFFFFFF AND MUL OR SWAP1 SSTORE POP DUP2 DUP4 PUSH20 0xFFFFFFFFFFFFFFFFFFFFFFFFFFFFFFFFFFFFFFFF AND DUP3 PUSH20 0xFFFFFFFFFFFFFFFFFFFFFFFFFFFFFFFFFFFFFFFF AND PUSH32 0x8C5BE1E5EBEC7D5BD14F71427D1E84F3DD0314C0F7B2291E5B200AC8C7C3B925 PUSH1 0x40 MLOAD PUSH1 0x40 MLOAD DUP1 SWAP2 SUB SWAP1 LOG4 POP POP POP JUMP JUMPDEST PUSH0 SWAP1 JUMP JUMPDEST PUSH0 PUSH2 0x150A DUP3 PUSH2 0x1B98 JUMP JUMPDEST SWAP1 POP DUP4 PUSH20 0xFFFFFFFFFFFFFFFFFFFFFFFFFFFFFFFFFFFFFFFF AND DUP2 PUSH0 ADD MLOAD PUSH20 0xFFFFFFFFFFFFFFFFFFFFFFFFFFFFFFFFFFFFFFFF AND EQ PUSH2 0x1574 JUMPI PUSH1 0x40 MLOAD PUSH32 0xA114810000000000000000000000000000000000000000000000000000000000 DUP2 MSTORE PUSH1 0x4 ADD PUSH1 0x40 MLOAD DUP1 SWAP2 SUB SWAP1 REVERT JUMPDEST PUSH0 DUP5 PUSH20 0xFFFFFFFFFFFFFFFFFFFFFFFFFFFFFFFFFFFFFFFF AND PUSH2 0x1594 PUSH2 0x1446 JUMP JUMPDEST PUSH20 0xFFFFFFFFFFFFFFFFFFFFFFFFFFFFFFFFFFFFFFFF AND EQ DUP1 PUSH2 0x15C3 JUMPI POP PUSH2 0x15C2 DUP6 PUSH2 0x15BD PUSH2 0x1446 JUMP JUMPDEST PUSH2 0x1284 JUMP JUMPDEST JUMPDEST DUP1 PUSH2 0x1608 JUMPI POP PUSH2 0x15D1 PUSH2 0x1446 JUMP JUMPDEST PUSH20 0xFFFFFFFFFFFFFFFFFFFFFFFFFFFFFFFFFFFFFFFF AND PUSH2 0x15F0 DUP5 PUSH2 0x8DA JUMP JUMPDEST PUSH20 0xFFFFFFFFFFFFFFFFFFFFFFFFFFFFFFFFFFFFFFFF AND EQ JUMPDEST SWAP1 POP DUP1 PUSH2 0x1641 JUMPI PUSH1 0x40 MLOAD PUSH32 0x59C896BE00000000000000000000000000000000000000000000000000000000 DUP2 MSTORE PUSH1 0x4 ADD PUSH1 0x40 MLOAD DUP1 SWAP2 SUB SWAP1 REVERT JUMPDEST PUSH0 PUSH20 0xFFFFFFFFFFFFFFFFFFFFFFFFFFFFFFFFFFFFFFFF AND DUP5 PUSH20 0xFFFFFFFFFFFFFFFFFFFFFFFFFFFFFFFFFFFFFFFF AND SUB PUSH2 0x16A6 JUMPI PUSH1 0x40 MLOAD PUSH32 0xEA553B3400000000000000000000000000000000000000000000000000000000 DUP2 MSTORE PUSH1 0x4 ADD PUSH1 0x40 MLOAD DUP1 SWAP2 SUB SWAP1 REVERT JUMPDEST PUSH2 0x16B3 DUP6 DUP6 DUP6 PUSH1 0x1 PUSH2 0x212E JUMP JUMPDEST PUSH2 0x16BE PUSH0 DUP5 DUP8 PUSH2 0x144D JUMP JUMPDEST PUSH1 0x1 PUSH1 0x5 PUSH0 DUP8 PUSH20 0xFFFFFFFFFFFFFFFFFFFFFFFFFFFFFFFFFFFFFFFF AND PUSH20 0xFFFFFFFFFFFFFFFFFFFFFFFFFFFFFFFFFFFFFFFF AND DUP2 MSTORE PUSH1 0x20 ADD SWAP1 DUP2 MSTORE PUSH1 0x20 ADD PUSH0 KECCAK256 PUSH0 ADD PUSH0 DUP3 DUP3 DUP3 SWAP1 SLOAD SWAP1 PUSH2 0x100 EXP SWAP1 DIV PUSH8 0xFFFFFFFFFFFFFFFF AND SUB SWAP3 POP PUSH2 0x100 EXP DUP2 SLOAD DUP2 PUSH8 0xFFFFFFFFFFFFFFFF MUL NOT AND SWAP1 DUP4 PUSH8 0xFFFFFFFFFFFFFFFF AND MUL OR SWAP1 SSTORE POP PUSH1 0x1 PUSH1 0x5 PUSH0 DUP7 PUSH20 0xFFFFFFFFFFFFFFFFFFFFFFFFFFFFFFFFFFFFFFFF AND PUSH20 0xFFFFFFFFFFFFFFFFFFFFFFFFFFFFFFFFFFFFFFFF AND DUP2 MSTORE PUSH1 0x20 ADD SWAP1 DUP2 MSTORE PUSH1 0x20 ADD PUSH0 KECCAK256 PUSH0 ADD PUSH0 DUP3 DUP3 DUP3 SWAP1 SLOAD SWAP1 PUSH2 0x100 EXP SWAP1 DIV PUSH8 0xFFFFFFFFFFFFFFFF AND ADD SWAP3 POP PUSH2 0x100 EXP DUP2 SLOAD DUP2 PUSH8 0xFFFFFFFFFFFFFFFF MUL NOT AND SWAP1 DUP4 PUSH8 0xFFFFFFFFFFFFFFFF AND MUL OR SWAP1 SSTORE POP PUSH0 PUSH1 0x4 PUSH0 DUP6 DUP2 MSTORE PUSH1 0x20 ADD SWAP1 DUP2 MSTORE PUSH1 0x20 ADD PUSH0 KECCAK256 SWAP1 POP DUP5 DUP2 PUSH0 ADD PUSH0 PUSH2 0x100 EXP DUP2 SLOAD DUP2 PUSH20 0xFFFFFFFFFFFFFFFFFFFFFFFFFFFFFFFFFFFFFFFF MUL NOT AND SWAP1 DUP4 PUSH20 0xFFFFFFFFFFFFFFFFFFFFFFFFFFFFFFFFFFFFFFFF AND MUL OR SWAP1 SSTORE POP TIMESTAMP DUP2 PUSH0 ADD PUSH1 0x14 PUSH2 0x100 EXP DUP2 SLOAD DUP2 PUSH8 0xFFFFFFFFFFFFFFFF MUL NOT AND SWAP1 DUP4 PUSH8 0xFFFFFFFFFFFFFFFF AND MUL OR SWAP1 SSTORE POP PUSH0 PUSH1 0x1 DUP6 ADD SWAP1 POP PUSH0 PUSH1 0x4 PUSH0 DUP4 DUP2 MSTORE PUSH1 0x20 ADD SWAP1 DUP2 MSTORE PUSH1 0x20 ADD PUSH0 KECCAK256 SWAP1 POP PUSH0 PUSH20 0xFFFFFFFFFFFFFFFFFFFFFFFFFFFFFFFFFFFFFFFF AND DUP2 PUSH0 ADD PUSH0 SWAP1 SLOAD SWAP1 PUSH2 0x100 EXP SWAP1 DIV PUSH20 0xFFFFFFFFFFFFFFFFFFFFFFFFFFFFFFFFFFFFFFFF AND PUSH20 0xFFFFFFFFFFFFFFFFFFFFFFFFFFFFFFFFFFFFFFFF AND SUB PUSH2 0x1924 JUMPI PUSH0 SLOAD DUP3 EQ PUSH2 0x1923 JUMPI DUP8 DUP2 PUSH0 ADD PUSH0 PUSH2 0x100 EXP DUP2 SLOAD DUP2 PUSH20 0xFFFFFFFFFFFFFFFFFFFFFFFFFFFFFFFFFFFFFFFF MUL NOT AND SWAP1 DUP4 PUSH20 0xFFFFFFFFFFFFFFFFFFFFFFFFFFFFFFFFFFFFFFFF AND MUL OR SWAP1 SSTORE POP DUP5 PUSH1 0x20 ADD MLOAD DUP2 PUSH0 ADD PUSH1 0x14 PUSH2 0x100 EXP DUP2 SLOAD DUP2 PUSH8 0xFFFFFFFFFFFFFFFF MUL NOT AND SWAP1 DUP4 PUSH8 0xFFFFFFFFFFFFFFFF AND MUL OR SWAP1 SSTORE POP JUMPDEST JUMPDEST POP POP POP DUP3 DUP5 PUSH20 0xFFFFFFFFFFFFFFFFFFFFFFFFFFFFFFFFFFFFFFFF AND DUP7 PUSH20 0xFFFFFFFFFFFFFFFFFFFFFFFFFFFFFFFFFFFFFFFF AND PUSH32 0xDDF252AD1BE2C89B69C2B068FC378DAA952BA7F163C4A11628F55A4DF523B3EF PUSH1 0x40 MLOAD PUSH1 0x40 MLOAD DUP1 SWAP2 SUB SWAP1 LOG4 PUSH2 0x198F DUP6 DUP6 DUP6 PUSH1 0x1 PUSH2 0x2134 JUMP JUMPDEST POP POP POP POP POP JUMP JUMPDEST DUP1 SELFBALANCE LT ISZERO PUSH2 0x19D9 JUMPI PUSH1 0x40 MLOAD PUSH32 0x8C379A000000000000000000000000000000000000000000000000000000000 DUP2 MSTORE PUSH1 0x4 ADD PUSH2 0x19D0 SWAP1 PUSH2 0x312A JUMP JUMPDEST PUSH1 0x40 MLOAD DUP1 SWAP2 SUB SWAP1 REVERT JUMPDEST PUSH0 DUP3 PUSH20 0xFFFFFFFFFFFFFFFFFFFFFFFFFFFFFFFFFFFFFFFF AND DUP3 PUSH1 0x40 MLOAD PUSH2 0x19FE SWAP1 PUSH2 0x3175 JUMP JUMPDEST PUSH0 PUSH1 0x40 MLOAD DUP1 DUP4 SUB DUP2 DUP6 DUP8 GAS CALL SWAP3 POP POP POP RETURNDATASIZE DUP1 PUSH0 DUP2 EQ PUSH2 0x1A38 JUMPI PUSH1 0x40 MLOAD SWAP2 POP PUSH1 0x1F NOT PUSH1 0x3F RETURNDATASIZE ADD AND DUP3 ADD PUSH1 0x40 MSTORE RETURNDATASIZE DUP3 MSTORE RETURNDATASIZE PUSH0 PUSH1 0x20 DUP5 ADD RETURNDATACOPY PUSH2 0x1A3D JUMP JUMPDEST PUSH1 0x60 SWAP2 POP JUMPDEST POP POP SWAP1 POP DUP1 PUSH2 0x1A81 JUMPI PUSH1 0x40 MLOAD PUSH32 0x8C379A000000000000000000000000000000000000000000000000000000000 DUP2 MSTORE PUSH1 0x4 ADD PUSH2 0x1A78 SWAP1 PUSH2 0x31F9 JUMP JUMPDEST PUSH1 0x40 MLOAD DUP1 SWAP2 SUB SWAP1 REVERT JUMPDEST POP POP POP JUMP JUMPDEST PUSH0 PUSH1 0x5 PUSH0 DUP4 PUSH20 0xFFFFFFFFFFFFFFFFFFFFFFFFFFFFFFFFFFFFFFFF AND PUSH20 0xFFFFFFFFFFFFFFFFFFFFFFFFFFFFFFFFFFFFFFFF AND DUP2 MSTORE PUSH1 0x20 ADD SWAP1 DUP2 MSTORE PUSH1 0x20 ADD PUSH0 KECCAK256 PUSH0 ADD PUSH1 0x8 SWAP1 SLOAD SWAP1 PUSH2 0x100 EXP SWAP1 DIV PUSH8 0xFFFFFFFFFFFFFFFF AND PUSH8 0xFFFFFFFFFFFFFFFF AND SWAP1 POP SWAP2 SWAP1 POP JUMP JUMPDEST PUSH0 PUSH2 0x1AF5 PUSH2 0x14FC JUMP JUMPDEST PUSH0 SLOAD SUB SWAP1 POP SWAP1 JUMP JUMPDEST PUSH2 0x1B16 DUP3 DUP3 PUSH1 0x40 MLOAD DUP1 PUSH1 0x20 ADD PUSH1 0x40 MSTORE DUP1 PUSH0 DUP2 MSTORE POP PUSH2 0x213A JUMP JUMPDEST POP POP JUMP JUMPDEST PUSH2 0x1B22 PUSH2 0x1446 JUMP JUMPDEST PUSH20 0xFFFFFFFFFFFFFFFFFFFFFFFFFFFFFFFFFFFFFFFF AND PUSH2 0x1B40 PUSH2 0xEB6 JUMP JUMPDEST PUSH20 0xFFFFFFFFFFFFFFFFFFFFFFFFFFFFFFFFFFFFFFFF AND EQ PUSH2 0x1B96 JUMPI PUSH1 0x40 MLOAD PUSH32 0x8C379A000000000000000000000000000000000000000000000000000000000 DUP2 MSTORE PUSH1 0x4 ADD PUSH2 0x1B8D SWAP1 PUSH2 0x3261 JUMP JUMPDEST PUSH1 0x40 MLOAD DUP1 SWAP2 SUB SWAP1 REVERT JUMPDEST JUMP JUMPDEST PUSH2 0x1BA0 PUSH2 0x264C JUMP JUMPDEST PUSH0 DUP3 SWAP1 POP DUP1 PUSH2 0x1BAD PUSH2 0x14FC JUMP JUMPDEST GT ISZERO DUP1 ISZERO PUSH2 0x1BBB JUMPI POP PUSH0 SLOAD DUP2 LT JUMPDEST ISZERO PUSH2 0x1DDD JUMPI PUSH0 PUSH1 0x4 PUSH0 DUP4 DUP2 MSTORE PUSH1 0x20 ADD SWAP1 DUP2 MSTORE PUSH1 0x20 ADD PUSH0 KECCAK256 PUSH1 0x40 MLOAD DUP1 PUSH1 0x60 ADD PUSH1 0x40 MSTORE SWAP1 DUP2 PUSH0 DUP3 ADD PUSH0 SWAP1 SLOAD SWAP1 PUSH2 0x100 EXP SWAP1 DIV PUSH20 0xFFFFFFFFFFFFFFFFFFFFFFFFFFFFFFFFFFFFFFFF AND PUSH20 0xFFFFFFFFFFFFFFFFFFFFFFFFFFFFFFFFFFFFFFFF AND PUSH20 0xFFFFFFFFFFFFFFFFFFFFFFFFFFFFFFFFFFFFFFFF AND DUP2 MSTORE PUSH1 0x20 ADD PUSH0 DUP3 ADD PUSH1 0x14 SWAP1 SLOAD SWAP1 PUSH2 0x100 EXP SWAP1 DIV PUSH8 0xFFFFFFFFFFFFFFFF AND PUSH8 0xFFFFFFFFFFFFFFFF AND PUSH8 0xFFFFFFFFFFFFFFFF AND DUP2 MSTORE PUSH1 0x20 ADD PUSH0 DUP3 ADD PUSH1 0x1C SWAP1 SLOAD SWAP1 PUSH2 0x100 EXP SWAP1 DIV PUSH1 0xFF AND ISZERO ISZERO ISZERO ISZERO DUP2 MSTORE POP POP SWAP1 POP DUP1 PUSH1 0x40 ADD MLOAD PUSH2 0x1DDB JUMPI PUSH0 PUSH20 0xFFFFFFFFFFFFFFFFFFFFFFFFFFFFFFFFFFFFFFFF AND DUP2 PUSH0 ADD MLOAD PUSH20 0xFFFFFFFFFFFFFFFFFFFFFFFFFFFFFFFFFFFFFFFF AND EQ PUSH2 0x1CC7 JUMPI DUP1 SWAP3 POP POP POP PUSH2 0x1E0F JUMP JUMPDEST JUMPDEST PUSH1 0x1 ISZERO PUSH2 0x1DDA JUMPI DUP2 DUP1 PUSH1 0x1 SWAP1 SUB SWAP3 POP POP PUSH1 0x4 PUSH0 DUP4 DUP2 MSTORE PUSH1 0x20 ADD SWAP1 DUP2 MSTORE PUSH1 0x20 ADD PUSH0 KECCAK256 PUSH1 0x40 MLOAD DUP1 PUSH1 0x60 ADD PUSH1 0x40 MSTORE SWAP1 DUP2 PUSH0 DUP3 ADD PUSH0 SWAP1 SLOAD SWAP1 PUSH2 0x100 EXP SWAP1 DIV PUSH20 0xFFFFFFFFFFFFFFFFFFFFFFFFFFFFFFFFFFFFFFFF AND PUSH20 0xFFFFFFFFFFFFFFFFFFFFFFFFFFFFFFFFFFFFFFFF AND PUSH20 0xFFFFFFFFFFFFFFFFFFFFFFFFFFFFFFFFFFFFFFFF AND DUP2 MSTORE PUSH1 0x20 ADD PUSH0 DUP3 ADD PUSH1 0x14 SWAP1 SLOAD SWAP1 PUSH2 0x100 EXP SWAP1 DIV PUSH8 0xFFFFFFFFFFFFFFFF AND PUSH8 0xFFFFFFFFFFFFFFFF AND PUSH8 0xFFFFFFFFFFFFFFFF AND DUP2 MSTORE PUSH1 0x20 ADD PUSH0 DUP3 ADD PUSH1 0x1C SWAP1 SLOAD SWAP1 PUSH2 0x100 EXP SWAP1 DIV PUSH1 0xFF AND ISZERO ISZERO ISZERO ISZERO DUP2 MSTORE POP POP SWAP1 POP PUSH0 PUSH20 0xFFFFFFFFFFFFFFFFFFFFFFFFFFFFFFFFFFFFFFFF AND DUP2 PUSH0 ADD MLOAD PUSH20 0xFFFFFFFFFFFFFFFFFFFFFFFFFFFFFFFFFFFFFFFF AND EQ PUSH2 0x1DD5 JUMPI DUP1 SWAP3 POP POP POP PUSH2 0x1E0F JUMP JUMPDEST PUSH2 0x1CC8 JUMP JUMPDEST JUMPDEST POP JUMPDEST PUSH1 0x40 MLOAD PUSH32 0xDF2D9B4200000000000000000000000000000000000000000000000000000000 DUP2 MSTORE PUSH1 0x4 ADD PUSH1 0x40 MLOAD DUP1 SWAP2 SUB SWAP1 REVERT JUMPDEST SWAP2 SWAP1 POP JUMP JUMPDEST PUSH0 PUSH1 0x8 PUSH0 SWAP1 SLOAD SWAP1 PUSH2 0x100 EXP SWAP1 DIV PUSH20 0xFFFFFFFFFFFFFFFFFFFFFFFFFFFFFFFFFFFFFFFF AND SWAP1 POP DUP2 PUSH1 0x8 PUSH0 PUSH2 0x100 EXP DUP2 SLOAD DUP2 PUSH20 0xFFFFFFFFFFFFFFFFFFFFFFFFFFFFFFFFFFFFFFFF MUL NOT AND SWAP1 DUP4 PUSH20 0xFFFFFFFFFFFFFFFFFFFFFFFFFFFFFFFFFFFFFFFF AND MUL OR SWAP1 SSTORE POP DUP2 PUSH20 0xFFFFFFFFFFFFFFFFFFFFFFFFFFFFFFFFFFFFFFFF AND DUP2 PUSH20 0xFFFFFFFFFFFFFFFFFFFFFFFFFFFFFFFFFFFFFFFF AND PUSH32 0x8BE0079C531659141344CD1FD0A4F28419497F9722A3DAAFE3B4186F6B6457E0 PUSH1 0x40 MLOAD PUSH1 0x40 MLOAD DUP1 SWAP2 SUB SWAP1 LOG3 POP POP JUMP JUMPDEST PUSH0 DUP1 DUP3 PUSH20 0xFFFFFFFFFFFFFFFFFFFFFFFFFFFFFFFFFFFFFFFF AND EXTCODESIZE GT SWAP1 POP SWAP2 SWAP1 POP JUMP JUMPDEST PUSH0 DUP4 PUSH20 0xFFFFFFFFFFFFFFFFFFFFFFFFFFFFFFFFFFFFFFFF AND PUSH4 0x150B7A02 PUSH2 0x1F1E PUSH2 0x1446 JUMP JUMPDEST DUP8 DUP7 DUP7 PUSH1 0x40 MLOAD DUP6 PUSH4 0xFFFFFFFF AND PUSH1 0xE0 SHL DUP2 MSTORE PUSH1 0x4 ADD PUSH2 0x1F40 SWAP5 SWAP4 SWAP3 SWAP2 SWAP1 PUSH2 0x32D1 JUMP JUMPDEST PUSH1 0x20 PUSH1 0x40 MLOAD DUP1 DUP4 SUB DUP2 PUSH0 DUP8 GAS CALL SWAP3 POP POP POP DUP1 ISZERO PUSH2 0x1F7B JUMPI POP PUSH1 0x40 MLOAD RETURNDATASIZE PUSH1 0x1F NOT PUSH1 0x1F DUP3 ADD AND DUP3 ADD DUP1 PUSH1 0x40 MSTORE POP DUP2 ADD SWAP1 PUSH2 0x1F78 SWAP2 SWAP1 PUSH2 0x332F JUMP JUMPDEST PUSH1 0x1 JUMPDEST PUSH2 0x1FF1 JUMPI RETURNDATASIZE DUP1 PUSH0 DUP2 EQ PUSH2 0x1FA9 JUMPI PUSH1 0x40 MLOAD SWAP2 POP PUSH1 0x1F NOT PUSH1 0x3F RETURNDATASIZE ADD AND DUP3 ADD PUSH1 0x40 MSTORE RETURNDATASIZE DUP3 MSTORE RETURNDATASIZE PUSH0 PUSH1 0x20 DUP5 ADD RETURNDATACOPY PUSH2 0x1FAE JUMP JUMPDEST PUSH1 0x60 SWAP2 POP JUMPDEST POP PUSH0 DUP2 MLOAD SUB PUSH2 0x1FE9 JUMPI PUSH1 0x40 MLOAD PUSH32 0xD1A57ED600000000000000000000000000000000000000000000000000000000 DUP2 MSTORE PUSH1 0x4 ADD PUSH1 0x40 MLOAD DUP1 SWAP2 SUB SWAP1 REVERT JUMPDEST DUP1 MLOAD DUP2 PUSH1 0x20 ADD REVERT JUMPDEST PUSH4 0x150B7A02 PUSH1 0xE0 SHL PUSH28 0xFFFFFFFFFFFFFFFFFFFFFFFFFFFFFFFFFFFFFFFFFFFFFFFFFFFFFFFF NOT AND DUP2 PUSH28 0xFFFFFFFFFFFFFFFFFFFFFFFFFFFFFFFFFFFFFFFFFFFFFFFFFFFFFFFF NOT AND EQ SWAP2 POP POP SWAP5 SWAP4 POP POP POP POP JUMP JUMPDEST PUSH1 0x60 PUSH1 0x40 MLOAD DUP1 PUSH1 0x60 ADD PUSH1 0x40 MSTORE DUP1 PUSH1 0x36 DUP2 MSTORE PUSH1 0x20 ADD PUSH2 0x3388 PUSH1 0x36 SWAP2 CODECOPY SWAP1 POP SWAP1 JUMP JUMPDEST PUSH1 0x60 PUSH0 PUSH1 0x1 PUSH2 0x2072 DUP5 PUSH2 0x214C JUMP JUMPDEST ADD SWAP1 POP PUSH0 DUP2 PUSH8 0xFFFFFFFFFFFFFFFF DUP2 GT ISZERO PUSH2 0x2090 JUMPI PUSH2 0x208F PUSH2 0x2A2B JUMP JUMPDEST JUMPDEST PUSH1 0x40 MLOAD SWAP1 DUP1 DUP3 MSTORE DUP1 PUSH1 0x1F ADD PUSH1 0x1F NOT AND PUSH1 0x20 ADD DUP3 ADD PUSH1 0x40 MSTORE DUP1 ISZERO PUSH2 0x20C2 JUMPI DUP2 PUSH1 0x20 ADD PUSH1 0x1 DUP3 MUL DUP1 CALLDATASIZE DUP4 CALLDATACOPY DUP1 DUP3 ADD SWAP2 POP POP SWAP1 POP JUMPDEST POP SWAP1 POP PUSH0 DUP3 PUSH1 0x20 ADD DUP3 ADD SWAP1 POP JUMPDEST PUSH1 0x1 ISZERO PUSH2 0x2123 JUMPI DUP1 DUP1 PUSH1 0x1 SWAP1 SUB SWAP2 POP POP PUSH32 0x3031323334353637383961626364656600000000000000000000000000000000 PUSH1 0xA DUP7 MOD BYTE DUP2 MSTORE8 PUSH1 0xA DUP6 DUP2 PUSH2 0x2118 JUMPI PUSH2 0x2117 PUSH2 0x335A JUMP JUMPDEST JUMPDEST DIV SWAP5 POP PUSH0 DUP6 SUB PUSH2 0x20CF JUMPI JUMPDEST DUP2 SWAP4 POP POP POP POP SWAP2 SWAP1 POP JUMP JUMPDEST POP POP POP POP JUMP JUMPDEST POP POP POP POP JUMP JUMPDEST PUSH2 0x2147 DUP4 DUP4 DUP4 PUSH1 0x1 PUSH2 0x229D JUMP JUMPDEST POP POP POP JUMP JUMPDEST PUSH0 DUP1 PUSH0 SWAP1 POP PUSH27 0x184F03E93FF9F4DAA797ED6E38ED64BF6A1F010000000000000000 DUP4 LT PUSH2 0x21A8 JUMPI PUSH27 0x184F03E93FF9F4DAA797ED6E38ED64BF6A1F010000000000000000 DUP4 DUP2 PUSH2 0x219E JUMPI PUSH2 0x219D PUSH2 0x335A JUMP JUMPDEST JUMPDEST DIV SWAP3 POP PUSH1 0x40 DUP2 ADD SWAP1 POP JUMPDEST PUSH14 0x4EE2D6D415B85ACEF8100000000 DUP4 LT PUSH2 0x21E5 JUMPI PUSH14 0x4EE2D6D415B85ACEF8100000000 DUP4 DUP2 PUSH2 0x21DB JUMPI PUSH2 0x21DA PUSH2 0x335A JUMP JUMPDEST JUMPDEST DIV SWAP3 POP PUSH1 0x20 DUP2 ADD SWAP1 POP JUMPDEST PUSH7 0x2386F26FC10000 DUP4 LT PUSH2 0x2214 JUMPI PUSH7 0x2386F26FC10000 DUP4 DUP2 PUSH2 0x220A JUMPI PUSH2 0x2209 PUSH2 0x335A JUMP JUMPDEST JUMPDEST DIV SWAP3 POP PUSH1 0x10 DUP2 ADD SWAP1 POP JUMPDEST PUSH4 0x5F5E100 DUP4 LT PUSH2 0x223D JUMPI PUSH4 0x5F5E100 DUP4 DUP2 PUSH2 0x2233 JUMPI PUSH2 0x2232 PUSH2 0x335A JUMP JUMPDEST JUMPDEST DIV SWAP3 POP PUSH1 0x8 DUP2 ADD SWAP1 POP JUMPDEST PUSH2 0x2710 DUP4 LT PUSH2 0x2262 JUMPI PUSH2 0x2710 DUP4 DUP2 PUSH2 0x2258 JUMPI PUSH2 0x2257 PUSH2 0x335A JUMP JUMPDEST JUMPDEST DIV SWAP3 POP PUSH1 0x4 DUP2 ADD SWAP1 POP JUMPDEST PUSH1 0x64 DUP4 LT PUSH2 0x2285 JUMPI PUSH1 0x64 DUP4 DUP2 PUSH2 0x227B JUMPI PUSH2 0x227A PUSH2 0x335A JUMP JUMPDEST JUMPDEST DIV SWAP3 POP PUSH1 0x2 DUP2 ADD SWAP1 POP JUMPDEST PUSH1 0xA DUP4 LT PUSH2 0x2294 JUMPI PUSH1 0x1 DUP2 ADD SWAP1 POP JUMPDEST DUP1 SWAP2 POP POP SWAP2 SWAP1 POP JUMP JUMPDEST PUSH0 DUP1 SLOAD SWAP1 POP PUSH0 PUSH20 0xFFFFFFFFFFFFFFFFFFFFFFFFFFFFFFFFFFFFFFFF AND DUP6 PUSH20 0xFFFFFFFFFFFFFFFFFFFFFFFFFFFFFFFFFFFFFFFF AND SUB PUSH2 0x2307 JUMPI PUSH1 0x40 MLOAD PUSH32 0x2E07630000000000000000000000000000000000000000000000000000000000 DUP2 MSTORE PUSH1 0x4 ADD PUSH1 0x40 MLOAD DUP1 SWAP2 SUB SWAP1 REVERT JUMPDEST PUSH0 DUP5 SUB PUSH2 0x2340 JUMPI PUSH1 0x40 MLOAD PUSH32 0xB562E8DD00000000000000000000000000000000000000000000000000000000 DUP2 MSTORE PUSH1 0x4 ADD PUSH1 0x40 MLOAD DUP1 SWAP2 SUB SWAP1 REVERT JUMPDEST PUSH2 0x234C PUSH0 DUP7 DUP4 DUP8 PUSH2 0x212E JUMP JUMPDEST DUP4 PUSH1 0x5 PUSH0 DUP8 PUSH20 0xFFFFFFFFFFFFFFFFFFFFFFFFFFFFFFFFFFFFFFFF AND PUSH20 0xFFFFFFFFFFFFFFFFFFFFFFFFFFFFFFFFFFFFFFFF AND DUP2 MSTORE PUSH1 0x20 ADD SWAP1 DUP2 MSTORE PUSH1 0x20 ADD PUSH0 KECCAK256 PUSH0 ADD PUSH0 DUP3 DUP3 DUP3 SWAP1 SLOAD SWAP1 PUSH2 0x100 EXP SWAP1 DIV PUSH8 0xFFFFFFFFFFFFFFFF AND ADD SWAP3 POP PUSH2 0x100 EXP DUP2 SLOAD DUP2 PUSH8 0xFFFFFFFFFFFFFFFF MUL NOT AND SWAP1 DUP4 PUSH8 0xFFFFFFFFFFFFFFFF AND MUL OR SWAP1 SSTORE POP DUP4 PUSH1 0x5 PUSH0 DUP8 PUSH20 0xFFFFFFFFFFFFFFFFFFFFFFFFFFFFFFFFFFFFFFFF AND PUSH20 0xFFFFFFFFFFFFFFFFFFFFFFFFFFFFFFFFFFFFFFFF AND DUP2 MSTORE PUSH1 0x20 ADD SWAP1 DUP2 MSTORE PUSH1 0x20 ADD PUSH0 KECCAK256 PUSH0 ADD PUSH1 0x8 DUP3 DUP3 DUP3 SWAP1 SLOAD SWAP1 PUSH2 0x100 EXP SWAP1 DIV PUSH8 0xFFFFFFFFFFFFFFFF AND ADD SWAP3 POP PUSH2 0x100 EXP DUP2 SLOAD DUP2 PUSH8 0xFFFFFFFFFFFFFFFF MUL NOT AND SWAP1 DUP4 PUSH8 0xFFFFFFFFFFFFFFFF AND MUL OR SWAP1 SSTORE POP DUP5 PUSH1 0x4 PUSH0 DUP4 DUP2 MSTORE PUSH1 0x20 ADD SWAP1 DUP2 MSTORE PUSH1 0x20 ADD PUSH0 KECCAK256 PUSH0 ADD PUSH0 PUSH2 0x100 EXP DUP2 SLOAD DUP2 PUSH20 0xFFFFFFFFFFFFFFFFFFFFFFFFFFFFFFFFFFFFFFFF MUL NOT AND SWAP1 DUP4 PUSH20 0xFFFFFFFFFFFFFFFFFFFFFFFFFFFFFFFFFFFFFFFF AND MUL OR SWAP1 SSTORE POP TIMESTAMP PUSH1 0x4 PUSH0 DUP4 DUP2 MSTORE PUSH1 0x20 ADD SWAP1 DUP2 MSTORE PUSH1 0x20 ADD PUSH0 KECCAK256 PUSH0 ADD PUSH1 0x14 PUSH2 0x100 EXP DUP2 SLOAD DUP2 PUSH8 0xFFFFFFFFFFFFFFFF MUL NOT AND SWAP1 DUP4 PUSH8 0xFFFFFFFFFFFFFFFF AND MUL OR SWAP1 SSTORE POP PUSH0 DUP2 SWAP1 POP PUSH0 DUP6 DUP3 ADD SWAP1 POP DUP4 DUP1 ISZERO PUSH2 0x2506 JUMPI POP PUSH2 0x2505 DUP8 PUSH20 0xFFFFFFFFFFFFFFFFFFFFFFFFFFFFFFFFFFFFFFFF AND PUSH2 0x1ED7 JUMP JUMPDEST JUMPDEST ISZERO PUSH2 0x25C7 JUMPI JUMPDEST DUP2 DUP8 PUSH20 0xFFFFFFFFFFFFFFFFFFFFFFFFFFFFFFFFFFFFFFFF AND PUSH0 PUSH20 0xFFFFFFFFFFFFFFFFFFFFFFFFFFFFFFFFFFFFFFFF AND PUSH32 0xDDF252AD1BE2C89B69C2B068FC378DAA952BA7F163C4A11628F55A4DF523B3EF PUSH1 0x40 MLOAD PUSH1 0x40 MLOAD DUP1 SWAP2 SUB SWAP1 LOG4 PUSH2 0x2579 PUSH0 DUP9 DUP5 DUP1 PUSH1 0x1 ADD SWAP6 POP DUP9 PUSH2 0x1EF9 JUMP JUMPDEST PUSH2 0x25AF JUMPI PUSH1 0x40 MLOAD PUSH32 0xD1A57ED600000000000000000000000000000000000000000000000000000000 DUP2 MSTORE PUSH1 0x4 ADD PUSH1 0x40 MLOAD DUP1 SWAP2 SUB SWAP1 REVERT JUMPDEST DUP1 DUP3 SUB PUSH2 0x250C JUMPI DUP3 PUSH0 SLOAD EQ PUSH2 0x25C2 JUMPI PUSH0 DUP1 REVERT JUMPDEST PUSH2 0x2631 JUMP JUMPDEST JUMPDEST DUP2 DUP1 PUSH1 0x1 ADD SWAP3 POP DUP8 PUSH20 0xFFFFFFFFFFFFFFFFFFFFFFFFFFFFFFFFFFFFFFFF AND PUSH0 PUSH20 0xFFFFFFFFFFFFFFFFFFFFFFFFFFFFFFFFFFFFFFFF AND PUSH32 0xDDF252AD1BE2C89B69C2B068FC378DAA952BA7F163C4A11628F55A4DF523B3EF PUSH1 0x40 MLOAD PUSH1 0x40 MLOAD DUP1 SWAP2 SUB SWAP1 LOG4 DUP1 DUP3 SUB PUSH2 0x25C8 JUMPI JUMPDEST DUP2 PUSH0 DUP2 SWAP1 SSTORE POP POP POP PUSH2 0x2645 PUSH0 DUP7 DUP4 DUP8 PUSH2 0x2134 JUMP JUMPDEST POP POP POP POP POP JUMP JUMPDEST PUSH1 0x40 MLOAD DUP1 PUSH1 0x60 ADD PUSH1 0x40 MSTORE DUP1 PUSH0 PUSH20 0xFFFFFFFFFFFFFFFFFFFFFFFFFFFFFFFFFFFFFFFF AND DUP2 MSTORE PUSH1 0x20 ADD PUSH0 PUSH8 0xFFFFFFFFFFFFFFFF AND DUP2 MSTORE PUSH1 0x20 ADD PUSH0 ISZERO ISZERO DUP2 MSTORE POP SWAP1 JUMP JUMPDEST PUSH0 PUSH1 0x40 MLOAD SWAP1 POP SWAP1 JUMP JUMPDEST PUSH0 DUP1 REVERT JUMPDEST PUSH0 DUP1 REVERT JUMPDEST PUSH0 PUSH32 0xFFFFFFFF00000000000000000000000000000000000000000000000000000000 DUP3 AND SWAP1 POP SWAP2 SWAP1 POP JUMP JUMPDEST PUSH2 0x26D1 DUP2 PUSH2 0x269D JUMP JUMPDEST DUP2 EQ PUSH2 0x26DB JUMPI PUSH0 DUP1 REVERT JUMPDEST POP JUMP JUMPDEST PUSH0 DUP2 CALLDATALOAD SWAP1 POP PUSH2 0x26EC DUP2 PUSH2 0x26C8 JUMP JUMPDEST SWAP3 SWAP2 POP POP JUMP JUMPDEST PUSH0 PUSH1 0x20 DUP3 DUP5 SUB SLT ISZERO PUSH2 0x2707 JUMPI PUSH2 0x2706 PUSH2 0x2695 JUMP JUMPDEST JUMPDEST PUSH0 PUSH2 0x2714 DUP5 DUP3 DUP6 ADD PUSH2 0x26DE JUMP JUMPDEST SWAP2 POP POP SWAP3 SWAP2 POP POP JUMP JUMPDEST PUSH0 DUP2 ISZERO ISZERO SWAP1 POP SWAP2 SWAP1 POP JUMP JUMPDEST PUSH2 0x2731 DUP2 PUSH2 0x271D JUMP JUMPDEST DUP3 MSTORE POP POP JUMP JUMPDEST PUSH0 PUSH1 0x20 DUP3 ADD SWAP1 POP PUSH2 0x274A PUSH0 DUP4 ADD DUP5 PUSH2 0x2728 JUMP JUMPDEST SWAP3 SWAP2 POP POP JUMP JUMPDEST PUSH0 DUP2 SWAP1 POP SWAP2 SWAP1 POP JUMP JUMPDEST PUSH2 0x2762 DUP2 PUSH2 0x2750 JUMP JUMPDEST DUP2 EQ PUSH2 0x276C JUMPI PUSH0 DUP1 REVERT JUMPDEST POP JUMP JUMPDEST PUSH0 DUP2 CALLDATALOAD SWAP1 POP PUSH2 0x277D DUP2 PUSH2 0x2759 JUMP JUMPDEST SWAP3 SWAP2 POP POP JUMP JUMPDEST PUSH0 PUSH1 0x20 DUP3 DUP5 SUB SLT ISZERO PUSH2 0x2798 JUMPI PUSH2 0x2797 PUSH2 0x2695 JUMP JUMPDEST JUMPDEST PUSH0 PUSH2 0x27A5 DUP5 DUP3 DUP6 ADD PUSH2 0x276F JUMP JUMPDEST SWAP2 POP POP SWAP3 SWAP2 POP POP JUMP JUMPDEST PUSH2 0x27B7 DUP2 PUSH2 0x2750 JUMP JUMPDEST DUP3 MSTORE POP POP JUMP JUMPDEST PUSH0 PUSH1 0x20 DUP3 ADD SWAP1 POP PUSH2 0x27D0 PUSH0 DUP4 ADD DUP5 PUSH2 0x27AE JUMP JUMPDEST SWAP3 SWAP2 POP POP JUMP JUMPDEST PUSH0 DUP2 MLOAD SWAP1 POP SWAP2 SWAP1 POP JUMP JUMPDEST PUSH0 DUP3 DUP3 MSTORE PUSH1 0x20 DUP3 ADD SWAP1 POP SWAP3 SWAP2 POP POP JUMP JUMPDEST PUSH0 JUMPDEST DUP4 DUP2 LT ISZERO PUSH2 0x280D JUMPI DUP1 DUP3 ADD MLOAD DUP2 DUP5 ADD MSTORE PUSH1 0x20 DUP2 ADD SWAP1 POP PUSH2 0x27F2 JUMP JUMPDEST PUSH0 DUP5 DUP5 ADD MSTORE POP POP POP POP JUMP JUMPDEST PUSH0 PUSH1 0x1F NOT PUSH1 0x1F DUP4 ADD AND SWAP1 POP SWAP2 SWAP1 POP JUMP JUMPDEST PUSH0 PUSH2 0x2832 DUP3 PUSH2 0x27D6 JUMP JUMPDEST PUSH2 0x283C DUP2 DUP6 PUSH2 0x27E0 JUMP JUMPDEST SWAP4 POP PUSH2 0x284C DUP2 DUP6 PUSH1 0x20 DUP7 ADD PUSH2 0x27F0 JUMP JUMPDEST PUSH2 0x2855 DUP2 PUSH2 0x2818 JUMP JUMPDEST DUP5 ADD SWAP2 POP POP SWAP3 SWAP2 POP POP JUMP JUMPDEST PUSH0 PUSH1 0x20 DUP3 ADD SWAP1 POP DUP2 DUP2 SUB PUSH0 DUP4 ADD MSTORE PUSH2 0x2878 DUP2 DUP5 PUSH2 0x2828 JUMP JUMPDEST SWAP1 POP SWAP3 SWAP2 POP POP JUMP JUMPDEST PUSH0 PUSH20 0xFFFFFFFFFFFFFFFFFFFFFFFFFFFFFFFFFFFFFFFF DUP3 AND SWAP1 POP SWAP2 SWAP1 POP JUMP JUMPDEST PUSH0 PUSH2 0x28A9 DUP3 PUSH2 0x2880 JUMP JUMPDEST SWAP1 POP SWAP2 SWAP1 POP JUMP JUMPDEST PUSH2 0x28B9 DUP2 PUSH2 0x289F JUMP JUMPDEST DUP3 MSTORE POP POP JUMP JUMPDEST PUSH0 PUSH1 0x20 DUP3 ADD SWAP1 POP PUSH2 0x28D2 PUSH0 DUP4 ADD DUP5 PUSH2 0x28B0 JUMP JUMPDEST SWAP3 SWAP2 POP POP JUMP JUMPDEST PUSH2 0x28E1 DUP2 PUSH2 0x289F JUMP JUMPDEST DUP2 EQ PUSH2 0x28EB JUMPI PUSH0 DUP1 REVERT JUMPDEST POP JUMP JUMPDEST PUSH0 DUP2 CALLDATALOAD SWAP1 POP PUSH2 0x28FC DUP2 PUSH2 0x28D8 JUMP JUMPDEST SWAP3 SWAP2 POP POP JUMP JUMPDEST PUSH0 DUP1 PUSH1 0x40 DUP4 DUP6 SUB SLT ISZERO PUSH2 0x2918 JUMPI PUSH2 0x2917 PUSH2 0x2695 JUMP JUMPDEST JUMPDEST PUSH0 PUSH2 0x2925 DUP6 DUP3 DUP7 ADD PUSH2 0x28EE JUMP JUMPDEST SWAP3 POP POP PUSH1 0x20 PUSH2 0x2936 DUP6 DUP3 DUP7 ADD PUSH2 0x276F JUMP JUMPDEST SWAP2 POP POP SWAP3 POP SWAP3 SWAP1 POP JUMP JUMPDEST PUSH0 DUP1 PUSH0 PUSH1 0x60 DUP5 DUP7 SUB SLT ISZERO PUSH2 0x2957 JUMPI PUSH2 0x2956 PUSH2 0x2695 JUMP JUMPDEST JUMPDEST PUSH0 PUSH2 0x2964 DUP7 DUP3 DUP8 ADD PUSH2 0x28EE JUMP JUMPDEST SWAP4 POP POP PUSH1 0x20 PUSH2 0x2975 DUP7 DUP3 DUP8 ADD PUSH2 0x28EE JUMP JUMPDEST SWAP3 POP POP PUSH1 0x40 PUSH2 0x2986 DUP7 DUP3 DUP8 ADD PUSH2 0x276F JUMP JUMPDEST SWAP2 POP POP SWAP3 POP SWAP3 POP SWAP3 JUMP JUMPDEST PUSH0 PUSH1 0x20 DUP3 DUP5 SUB SLT ISZERO PUSH2 0x29A5 JUMPI PUSH2 0x29A4 PUSH2 0x2695 JUMP JUMPDEST JUMPDEST PUSH0 PUSH2 0x29B2 DUP5 DUP3 DUP6 ADD PUSH2 0x28EE JUMP JUMPDEST SWAP2 POP POP SWAP3 SWAP2 POP POP JUMP JUMPDEST PUSH2 0x29C4 DUP2 PUSH2 0x271D JUMP JUMPDEST DUP2 EQ PUSH2 0x29CE JUMPI PUSH0 DUP1 REVERT JUMPDEST POP JUMP JUMPDEST PUSH0 DUP2 CALLDATALOAD SWAP1 POP PUSH2 0x29DF DUP2 PUSH2 0x29BB JUMP JUMPDEST SWAP3 SWAP2 POP POP JUMP JUMPDEST PUSH0 DUP1 PUSH1 0x40 DUP4 DUP6 SUB SLT ISZERO PUSH2 0x29FB JUMPI PUSH2 0x29FA PUSH2 0x2695 JUMP JUMPDEST JUMPDEST PUSH0 PUSH2 0x2A08 DUP6 DUP3 DUP7 ADD PUSH2 0x28EE JUMP JUMPDEST SWAP3 POP POP PUSH1 0x20 PUSH2 0x2A19 DUP6 DUP3 DUP7 ADD PUSH2 0x29D1 JUMP JUMPDEST SWAP2 POP POP SWAP3 POP SWAP3 SWAP1 POP JUMP JUMPDEST PUSH0 DUP1 REVERT JUMPDEST PUSH0 DUP1 REVERT JUMPDEST PUSH32 0x4E487B7100000000000000000000000000000000000000000000000000000000 PUSH0 MSTORE PUSH1 0x41 PUSH1 0x4 MSTORE PUSH1 0x24 PUSH0 REVERT JUMPDEST PUSH2 0x2A61 DUP3 PUSH2 0x2818 JUMP JUMPDEST DUP2 ADD DUP2 DUP2 LT PUSH8 0xFFFFFFFFFFFFFFFF DUP3 GT OR ISZERO PUSH2 0x2A80 JUMPI PUSH2 0x2A7F PUSH2 0x2A2B JUMP JUMPDEST JUMPDEST DUP1 PUSH1 0x40 MSTORE POP POP POP JUMP JUMPDEST PUSH0 PUSH2 0x2A92 PUSH2 0x268C JUMP JUMPDEST SWAP1 POP PUSH2 0x2A9E DUP3 DUP3 PUSH2 0x2A58 JUMP JUMPDEST SWAP2 SWAP1 POP JUMP JUMPDEST PUSH0 PUSH8 0xFFFFFFFFFFFFFFFF DUP3 GT ISZERO PUSH2 0x2ABD JUMPI PUSH2 0x2ABC PUSH2 0x2A2B JUMP JUMPDEST JUMPDEST PUSH2 0x2AC6 DUP3 PUSH2 0x2818 JUMP JUMPDEST SWAP1 POP PUSH1 0x20 DUP2 ADD SWAP1 POP SWAP2 SWAP1 POP JUMP JUMPDEST DUP3 DUP2 DUP4 CALLDATACOPY PUSH0 DUP4 DUP4 ADD MSTORE POP POP POP JUMP JUMPDEST PUSH0 PUSH2 0x2AF3 PUSH2 0x2AEE DUP5 PUSH2 0x2AA3 JUMP JUMPDEST PUSH2 0x2A89 JUMP JUMPDEST SWAP1 POP DUP3 DUP2 MSTORE PUSH1 0x20 DUP2 ADD DUP5 DUP5 DUP5 ADD GT ISZERO PUSH2 0x2B0F JUMPI PUSH2 0x2B0E PUSH2 0x2A27 JUMP JUMPDEST JUMPDEST PUSH2 0x2B1A DUP5 DUP3 DUP6 PUSH2 0x2AD3 JUMP JUMPDEST POP SWAP4 SWAP3 POP POP POP JUMP JUMPDEST PUSH0 DUP3 PUSH1 0x1F DUP4 ADD SLT PUSH2 0x2B36 JUMPI PUSH2 0x2B35 PUSH2 0x2A23 JUMP JUMPDEST JUMPDEST DUP2 CALLDATALOAD PUSH2 0x2B46 DUP5 DUP3 PUSH1 0x20 DUP7 ADD PUSH2 0x2AE1 JUMP JUMPDEST SWAP2 POP POP SWAP3 SWAP2 POP POP JUMP JUMPDEST PUSH0 DUP1 PUSH0 DUP1 PUSH1 0x80 DUP6 DUP8 SUB SLT ISZERO PUSH2 0x2B67 JUMPI PUSH2 0x2B66 PUSH2 0x2695 JUMP JUMPDEST JUMPDEST PUSH0 PUSH2 0x2B74 DUP8 DUP3 DUP9 ADD PUSH2 0x28EE JUMP JUMPDEST SWAP5 POP POP PUSH1 0x20 PUSH2 0x2B85 DUP8 DUP3 DUP9 ADD PUSH2 0x28EE JUMP JUMPDEST SWAP4 POP POP PUSH1 0x40 PUSH2 0x2B96 DUP8 DUP3 DUP9 ADD PUSH2 0x276F JUMP JUMPDEST SWAP3 POP POP PUSH1 0x60 DUP6 ADD CALLDATALOAD PUSH8 0xFFFFFFFFFFFFFFFF DUP2 GT ISZERO PUSH2 0x2BB7 JUMPI PUSH2 0x2BB6 PUSH2 0x2699 JUMP JUMPDEST JUMPDEST PUSH2 0x2BC3 DUP8 DUP3 DUP9 ADD PUSH2 0x2B22 JUMP JUMPDEST SWAP2 POP POP SWAP3 SWAP6 SWAP2 SWAP5 POP SWAP3 POP JUMP JUMPDEST PUSH0 DUP1 PUSH1 0x40 DUP4 DUP6 SUB SLT ISZERO PUSH2 0x2BE5 JUMPI PUSH2 0x2BE4 PUSH2 0x2695 JUMP JUMPDEST JUMPDEST PUSH0 PUSH2 0x2BF2 DUP6 DUP3 DUP7 ADD PUSH2 0x28EE JUMP JUMPDEST SWAP3 POP POP PUSH1 0x20 PUSH2 0x2C03 DUP6 DUP3 DUP7 ADD PUSH2 0x28EE JUMP JUMPDEST SWAP2 POP POP SWAP3 POP SWAP3 SWAP1 POP JUMP JUMPDEST PUSH32 0x4E487B7100000000000000000000000000000000000000000000000000000000 PUSH0 MSTORE PUSH1 0x22 PUSH1 0x4 MSTORE PUSH1 0x24 PUSH0 REVERT JUMPDEST PUSH0 PUSH1 0x2 DUP3 DIV SWAP1 POP PUSH1 0x1 DUP3 AND DUP1 PUSH2 0x2C51 JUMPI PUSH1 0x7F DUP3 AND SWAP2 POP JUMPDEST PUSH1 0x20 DUP3 LT DUP2 SUB PUSH2 0x2C64 JUMPI PUSH2 0x2C63 PUSH2 0x2C0D JUMP JUMPDEST JUMPDEST POP SWAP2 SWAP1 POP JUMP JUMPDEST PUSH32 0x526566756E6420506572696F6420457870697265640000000000000000000000 PUSH0 DUP3 ADD MSTORE POP JUMP JUMPDEST PUSH0 PUSH2 0x2C9E PUSH1 0x15 DUP4 PUSH2 0x27E0 JUMP JUMPDEST SWAP2 POP PUSH2 0x2CA9 DUP3 PUSH2 0x2C6A JUMP JUMPDEST PUSH1 0x20 DUP3 ADD SWAP1 POP SWAP2 SWAP1 POP JUMP JUMPDEST PUSH0 PUSH1 0x20 DUP3 ADD SWAP1 POP DUP2 DUP2 SUB PUSH0 DUP4 ADD MSTORE PUSH2 0x2CCB DUP2 PUSH2 0x2C92 JUMP JUMPDEST SWAP1 POP SWAP2 SWAP1 POP JUMP JUMPDEST PUSH32 0x4E6F7420796F7572204E46540000000000000000000000000000000000000000 PUSH0 DUP3 ADD MSTORE POP JUMP JUMPDEST PUSH0 PUSH2 0x2D06 PUSH1 0xC DUP4 PUSH2 0x27E0 JUMP JUMPDEST SWAP2 POP PUSH2 0x2D11 DUP3 PUSH2 0x2CD2 JUMP JUMPDEST PUSH1 0x20 DUP3 ADD SWAP1 POP SWAP2 SWAP1 POP JUMP JUMPDEST PUSH0 PUSH1 0x20 DUP3 ADD SWAP1 POP DUP2 DUP2 SUB PUSH0 DUP4 ADD MSTORE PUSH2 0x2D33 DUP2 PUSH2 0x2CFA JUMP JUMPDEST SWAP1 POP SWAP2 SWAP1 POP JUMP JUMPDEST PUSH32 0x4E487B7100000000000000000000000000000000000000000000000000000000 PUSH0 MSTORE PUSH1 0x11 PUSH1 0x4 MSTORE PUSH1 0x24 PUSH0 REVERT JUMPDEST PUSH0 PUSH2 0x2D71 DUP3 PUSH2 0x2750 JUMP JUMPDEST SWAP2 POP PUSH2 0x2D7C DUP4 PUSH2 0x2750 JUMP JUMPDEST SWAP3 POP DUP3 DUP3 MUL PUSH2 0x2D8A DUP2 PUSH2 0x2750 JUMP JUMPDEST SWAP2 POP DUP3 DUP3 DIV DUP5 EQ DUP4 ISZERO OR PUSH2 0x2DA1 JUMPI PUSH2 0x2DA0 PUSH2 0x2D3A JUMP JUMPDEST JUMPDEST POP SWAP3 SWAP2 POP POP JUMP JUMPDEST PUSH32 0x4E6F7420656E6F7567682066756E647300000000000000000000000000000000 PUSH0 DUP3 ADD MSTORE POP JUMP JUMPDEST PUSH0 PUSH2 0x2DDC PUSH1 0x10 DUP4 PUSH2 0x27E0 JUMP JUMPDEST SWAP2 POP PUSH2 0x2DE7 DUP3 PUSH2 0x2DA8 JUMP JUMPDEST PUSH1 0x20 DUP3 ADD SWAP1 POP SWAP2 SWAP1 POP JUMP JUMPDEST PUSH0 PUSH1 0x20 DUP3 ADD SWAP1 POP DUP2 DUP2 SUB PUSH0 DUP4 ADD MSTORE PUSH2 0x2E09 DUP2 PUSH2 0x2DD0 JUMP JUMPDEST SWAP1 POP SWAP2 SWAP1 POP JUMP JUMPDEST PUSH0 PUSH2 0x2E1A DUP3 PUSH2 0x2750 JUMP JUMPDEST SWAP2 POP PUSH2 0x2E25 DUP4 PUSH2 0x2750 JUMP JUMPDEST SWAP3 POP DUP3 DUP3 ADD SWAP1 POP DUP1 DUP3 GT ISZERO PUSH2 0x2E3D JUMPI PUSH2 0x2E3C PUSH2 0x2D3A JUMP JUMPDEST JUMPDEST SWAP3 SWAP2 POP POP JUMP JUMPDEST PUSH32 0x4D696E74204C696D697400000000000000000000000000000000000000000000 PUSH0 DUP3 ADD MSTORE POP JUMP JUMPDEST PUSH0 PUSH2 0x2E77 PUSH1 0xA DUP4 PUSH2 0x27E0 JUMP JUMPDEST SWAP2 POP PUSH2 0x2E82 DUP3 PUSH2 0x2E43 JUMP JUMPDEST PUSH1 0x20 DUP3 ADD SWAP1 POP SWAP2 SWAP1 POP JUMP JUMPDEST PUSH0 PUSH1 0x20 DUP3 ADD SWAP1 POP DUP2 DUP2 SUB PUSH0 DUP4 ADD MSTORE PUSH2 0x2EA4 DUP2 PUSH2 0x2E6B JUMP JUMPDEST SWAP1 POP SWAP2 SWAP1 POP JUMP JUMPDEST PUSH32 0x534F4C44204F5554000000000000000000000000000000000000000000000000 PUSH0 DUP3 ADD MSTORE POP JUMP JUMPDEST PUSH0 PUSH2 0x2EDF PUSH1 0x8 DUP4 PUSH2 0x27E0 JUMP JUMPDEST SWAP2 POP PUSH2 0x2EEA DUP3 PUSH2 0x2EAB JUMP JUMPDEST PUSH1 0x20 DUP3 ADD SWAP1 POP SWAP2 SWAP1 POP JUMP JUMPDEST PUSH0 PUSH1 0x20 DUP3 ADD SWAP1 POP DUP2 DUP2 SUB PUSH0 DUP4 ADD MSTORE PUSH2 0x2F0C DUP2 PUSH2 0x2ED3 JUMP JUMPDEST SWAP1 POP SWAP2 SWAP1 POP JUMP JUMPDEST PUSH0 PUSH2 0x2F1D DUP3 PUSH2 0x2750 JUMP JUMPDEST SWAP2 POP PUSH2 0x2F28 DUP4 PUSH2 0x2750 JUMP JUMPDEST SWAP3 POP DUP3 DUP3 SUB SWAP1 POP DUP2 DUP2 GT ISZERO PUSH2 0x2F40 JUMPI PUSH2 0x2F3F PUSH2 0x2D3A JUMP JUMPDEST JUMPDEST SWAP3 SWAP2 POP POP JUMP JUMPDEST PUSH0 PUSH2 0x2F50 DUP3 PUSH2 0x2750 JUMP JUMPDEST SWAP2 POP PUSH32 0xFFFFFFFFFFFFFFFFFFFFFFFFFFFFFFFFFFFFFFFFFFFFFFFFFFFFFFFFFFFFFFFF DUP3 SUB PUSH2 0x2F82 JUMPI PUSH2 0x2F81 PUSH2 0x2D3A JUMP JUMPDEST JUMPDEST PUSH1 0x1 DUP3 ADD SWAP1 POP SWAP2 SWAP1 POP JUMP JUMPDEST PUSH32 0x49742773206E6F7420706173742074686520726566756E6420706572696F6400 PUSH0 DUP3 ADD MSTORE POP JUMP JUMPDEST PUSH0 PUSH2 0x2FC1 PUSH1 0x1F DUP4 PUSH2 0x27E0 JUMP JUMPDEST SWAP2 POP PUSH2 0x2FCC DUP3 PUSH2 0x2F8D JUMP JUMPDEST PUSH1 0x20 DUP3 ADD SWAP1 POP SWAP2 SWAP1 POP JUMP JUMPDEST PUSH0 PUSH1 0x20 DUP3 ADD SWAP1 POP DUP2 DUP2 SUB PUSH0 DUP4 ADD MSTORE PUSH2 0x2FEE DUP2 PUSH2 0x2FB5 JUMP JUMPDEST SWAP1 POP SWAP2 SWAP1 POP JUMP JUMPDEST PUSH0 DUP2 SWAP1 POP SWAP3 SWAP2 POP POP JUMP JUMPDEST PUSH0 PUSH2 0x3009 DUP3 PUSH2 0x27D6 JUMP JUMPDEST PUSH2 0x3013 DUP2 DUP6 PUSH2 0x2FF5 JUMP JUMPDEST SWAP4 POP PUSH2 0x3023 DUP2 DUP6 PUSH1 0x20 DUP7 ADD PUSH2 0x27F0 JUMP JUMPDEST DUP1 DUP5 ADD SWAP2 POP POP SWAP3 SWAP2 POP POP JUMP JUMPDEST PUSH0 PUSH2 0x303A DUP3 DUP6 PUSH2 0x2FFF JUMP JUMPDEST SWAP2 POP PUSH2 0x3046 DUP3 DUP5 PUSH2 0x2FFF JUMP JUMPDEST SWAP2 POP DUP2 SWAP1 POP SWAP4 SWAP3 POP POP POP JUMP JUMPDEST PUSH32 0x4F776E61626C653A206E6577206F776E657220697320746865207A65726F2061 PUSH0 DUP3 ADD MSTORE PUSH32 0x6464726573730000000000000000000000000000000000000000000000000000 PUSH1 0x20 DUP3 ADD MSTORE POP JUMP JUMPDEST PUSH0 PUSH2 0x30AC PUSH1 0x26 DUP4 PUSH2 0x27E0 JUMP JUMPDEST SWAP2 POP PUSH2 0x30B7 DUP3 PUSH2 0x3052 JUMP JUMPDEST PUSH1 0x40 DUP3 ADD SWAP1 POP SWAP2 SWAP1 POP JUMP JUMPDEST PUSH0 PUSH1 0x20 DUP3 ADD SWAP1 POP DUP2 DUP2 SUB PUSH0 DUP4 ADD MSTORE PUSH2 0x30D9 DUP2 PUSH2 0x30A0 JUMP JUMPDEST SWAP1 POP SWAP2 SWAP1 POP JUMP JUMPDEST PUSH32 0x416464726573733A20696E73756666696369656E742062616C616E6365000000 PUSH0 DUP3 ADD MSTORE POP JUMP JUMPDEST PUSH0 PUSH2 0x3114 PUSH1 0x1D DUP4 PUSH2 0x27E0 JUMP JUMPDEST SWAP2 POP PUSH2 0x311F DUP3 PUSH2 0x30E0 JUMP JUMPDEST PUSH1 0x20 DUP3 ADD SWAP1 POP SWAP2 SWAP1 POP JUMP JUMPDEST PUSH0 PUSH1 0x20 DUP3 ADD SWAP1 POP DUP2 DUP2 SUB PUSH0 DUP4 ADD MSTORE PUSH2 0x3141 DUP2 PUSH2 0x3108 JUMP JUMPDEST SWAP1 POP SWAP2 SWAP1 POP JUMP JUMPDEST PUSH0 DUP2 SWAP1 POP SWAP3 SWAP2 POP POP JUMP JUMPDEST POP JUMP JUMPDEST PUSH0 PUSH2 0x3160 PUSH0 DUP4 PUSH2 0x3148 JUMP JUMPDEST SWAP2 POP PUSH2 0x316B DUP3 PUSH2 0x3152 JUMP JUMPDEST PUSH0 DUP3 ADD SWAP1 POP SWAP2 SWAP1 POP JUMP JUMPDEST PUSH0 PUSH2 0x317F DUP3 PUSH2 0x3155 JUMP JUMPDEST SWAP2 POP DUP2 SWAP1 POP SWAP2 SWAP1 POP JUMP JUMPDEST PUSH32 0x416464726573733A20756E61626C6520746F2073656E642076616C75652C2072 PUSH0 DUP3 ADD MSTORE PUSH32 0x6563697069656E74206D61792068617665207265766572746564000000000000 PUSH1 0x20 DUP3 ADD MSTORE POP JUMP JUMPDEST PUSH0 PUSH2 0x31E3 PUSH1 0x3A DUP4 PUSH2 0x27E0 JUMP JUMPDEST SWAP2 POP PUSH2 0x31EE DUP3 PUSH2 0x3189 JUMP JUMPDEST PUSH1 0x40 DUP3 ADD SWAP1 POP SWAP2 SWAP1 POP JUMP JUMPDEST PUSH0 PUSH1 0x20 DUP3 ADD SWAP1 POP DUP2 DUP2 SUB PUSH0 DUP4 ADD MSTORE PUSH2 0x3210 DUP2 PUSH2 0x31D7 JUMP JUMPDEST SWAP1 POP SWAP2 SWAP1 POP JUMP JUMPDEST PUSH32 0x4F776E61626C653A2063616C6C6572206973206E6F7420746865206F776E6572 PUSH0 DUP3 ADD MSTORE POP JUMP JUMPDEST PUSH0 PUSH2 0x324B PUSH1 0x20 DUP4 PUSH2 0x27E0 JUMP JUMPDEST SWAP2 POP PUSH2 0x3256 DUP3 PUSH2 0x3217 JUMP JUMPDEST PUSH1 0x20 DUP3 ADD SWAP1 POP SWAP2 SWAP1 POP JUMP JUMPDEST PUSH0 PUSH1 0x20 DUP3 ADD SWAP1 POP DUP2 DUP2 SUB PUSH0 DUP4 ADD MSTORE PUSH2 0x3278 DUP2 PUSH2 0x323F JUMP JUMPDEST SWAP1 POP SWAP2 SWAP1 POP JUMP JUMPDEST PUSH0 DUP2 MLOAD SWAP1 POP SWAP2 SWAP1 POP JUMP JUMPDEST PUSH0 DUP3 DUP3 MSTORE PUSH1 0x20 DUP3 ADD SWAP1 POP SWAP3 SWAP2 POP POP JUMP JUMPDEST PUSH0 PUSH2 0x32A3 DUP3 PUSH2 0x327F JUMP JUMPDEST PUSH2 0x32AD DUP2 DUP6 PUSH2 0x3289 JUMP JUMPDEST SWAP4 POP PUSH2 0x32BD DUP2 DUP6 PUSH1 0x20 DUP7 ADD PUSH2 0x27F0 JUMP JUMPDEST PUSH2 0x32C6 DUP2 PUSH2 0x2818 JUMP JUMPDEST DUP5 ADD SWAP2 POP POP SWAP3 SWAP2 POP POP JUMP JUMPDEST PUSH0 PUSH1 0x80 DUP3 ADD SWAP1 POP PUSH2 0x32E4 PUSH0 DUP4 ADD DUP8 PUSH2 0x28B0 JUMP JUMPDEST PUSH2 0x32F1 PUSH1 0x20 DUP4 ADD DUP7 PUSH2 0x28B0 JUMP JUMPDEST PUSH2 0x32FE PUSH1 0x40 DUP4 ADD DUP6 PUSH2 0x27AE JUMP JUMPDEST DUP2 DUP2 SUB PUSH1 0x60 DUP4 ADD MSTORE PUSH2 0x3310 DUP2 DUP5 PUSH2 0x3299 JUMP JUMPDEST SWAP1 POP SWAP6 SWAP5 POP POP POP POP POP JUMP JUMPDEST PUSH0 DUP2 MLOAD SWAP1 POP PUSH2 0x3329 DUP2 PUSH2 0x26C8 JUMP JUMPDEST SWAP3 SWAP2 POP POP JUMP JUMPDEST PUSH0 PUSH1 0x20 DUP3 DUP5 SUB SLT ISZERO PUSH2 0x3344 JUMPI PUSH2 0x3343 PUSH2 0x2695 JUMP JUMPDEST JUMPDEST PUSH0 PUSH2 0x3351 DUP5 DUP3 DUP6 ADD PUSH2 0x331B JUMP JUMPDEST SWAP2 POP POP SWAP3 SWAP2 POP POP JUMP JUMPDEST PUSH32 0x4E487B7100000000000000000000000000000000000000000000000000000000 PUSH0 MSTORE PUSH1 0x12 PUSH1 0x4 MSTORE PUSH1 0x24 PUSH0 REVERT INVALID PUSH10 0x7066733A2F2F516D6273 PUSH6 0x52544A575373 0x4C PUSH7 0x68736957777542 ORIGIN MSTORE CALLDATACOPY GASLIMIT PUSH21 0x4E39335478666F614D7A3153354658747346455542 0x2F LOG2 PUSH5 0x6970667358 0x22 SLT KECCAK256 0xAE ADD DUP5 CHAINID 0xD PUSH5 0x249868A581 GAS 0xB6 0x2C PUSH4 0x9F0ABE4F DUP6 0xFB SUB PUSH19 0xC42B7F9A2C45B16ED564736F6C634300081400 CALLER "
		},
		"gasEstimates": {
			"creation": {
				"codeDepositCost": "2659800",
				"executionCost": "infinite",
				"totalCost": "infinite"
			},
			"external": {
				"approve(address,uint256)": "infinite",
				"balanceOf(address)": "3021",
				"getApproved(uint256)": "7417",
				"getRefundAmount(uint256)": "infinite",
				"getRefundDeadline(uint256)": "infinite",
				"hasRefunded(uint256)": "2830",
				"isApprovedForAll(address,address)": "infinite",
				"maxMintPerUser()": "436",
				"maxMintSupply()": "392",
				"mintPrice()": "414",
				"name()": "infinite",
				"owner()": "2583",
				"ownerOf(uint256)": "infinite",
				"refund(uint256)": "infinite",
				"refundAddress()": "2598",
				"refundEndTimestamp()": "2470",
				"refundEndTimestamps(uint256)": "infinite",
				"refundPeriod()": "414",
				"renounceOwnership()": "30436",
				"safeMint(uint256)": "infinite",
				"safeTransferFrom(address,address,uint256)": "infinite",
				"safeTransferFrom(address,address,uint256,bytes)": "infinite",
				"setApprovalForAll(address,bool)": "infinite",
				"supportsInterface(bytes4)": "810",
				"symbol()": "infinite",
				"tokenURI(uint256)": "infinite",
				"totalSupply()": "4681",
				"transferFrom(address,address,uint256)": "infinite",
				"transferOwnership(address)": "30841",
				"withdraw()": "infinite"
			},
			"internal": {
				"_baseURI()": "infinite"
			}
		},
		"methodIdentifiers": {
			"approve(address,uint256)": "095ea7b3",
			"balanceOf(address)": "70a08231",
			"getApproved(uint256)": "081812fc",
			"getRefundAmount(uint256)": "04cd5294",
			"getRefundDeadline(uint256)": "e5496fc8",
			"hasRefunded(uint256)": "c23fcdef",
			"isApprovedForAll(address,address)": "e985e9c5",
			"maxMintPerUser()": "d304c4bc",
			"maxMintSupply()": "c285e107",
			"mintPrice()": "6817c76c",
			"name()": "06fdde03",
			"owner()": "8da5cb5b",
			"ownerOf(uint256)": "6352211e",
			"refund(uint256)": "278ecde1",
			"refundAddress()": "0cb61f6c",
			"refundEndTimestamp()": "9bd37e2c",
			"refundEndTimestamps(uint256)": "d64297f9",
			"refundPeriod()": "a6a3b5b4",
			"renounceOwnership()": "715018a6",
			"safeMint(uint256)": "31c864e8",
			"safeTransferFrom(address,address,uint256)": "42842e0e",
			"safeTransferFrom(address,address,uint256,bytes)": "b88d4fde",
			"setApprovalForAll(address,bool)": "a22cb465",
			"supportsInterface(bytes4)": "01ffc9a7",
			"symbol()": "95d89b41",
			"tokenURI(uint256)": "c87b56dd",
			"totalSupply()": "18160ddd",
			"transferFrom(address,address,uint256)": "23b872dd",
			"transferOwnership(address)": "f2fde38b",
			"withdraw()": "3ccfd60b"
		}
	},
	"abi": [
		{
			"inputs": [],
			"stateMutability": "nonpayable",
			"type": "constructor"
		},
		{
			"inputs": [],
			"name": "ApprovalCallerNotOwnerNorApproved",
			"type": "error"
		},
		{
			"inputs": [],
			"name": "ApprovalQueryForNonexistentToken",
			"type": "error"
		},
		{
			"inputs": [],
			"name": "ApprovalToCurrentOwner",
			"type": "error"
		},
		{
			"inputs": [],
			"name": "ApproveToCaller",
			"type": "error"
		},
		{
			"inputs": [],
			"name": "BalanceQueryForZeroAddress",
			"type": "error"
		},
		{
			"inputs": [],
			"name": "MintToZeroAddress",
			"type": "error"
		},
		{
			"inputs": [],
			"name": "MintZeroQuantity",
			"type": "error"
		},
		{
			"inputs": [],
			"name": "OwnerQueryForNonexistentToken",
			"type": "error"
		},
		{
			"inputs": [],
			"name": "TransferCallerNotOwnerNorApproved",
			"type": "error"
		},
		{
			"inputs": [],
			"name": "TransferFromIncorrectOwner",
			"type": "error"
		},
		{
			"inputs": [],
			"name": "TransferToNonERC721ReceiverImplementer",
			"type": "error"
		},
		{
			"inputs": [],
			"name": "TransferToZeroAddress",
			"type": "error"
		},
		{
			"inputs": [],
			"name": "URIQueryForNonexistentToken",
			"type": "error"
		},
		{
			"anonymous": false,
			"inputs": [
				{
					"indexed": true,
					"internalType": "address",
					"name": "owner",
					"type": "address"
				},
				{
					"indexed": true,
					"internalType": "address",
					"name": "approved",
					"type": "address"
				},
				{
					"indexed": true,
					"internalType": "uint256",
					"name": "tokenId",
					"type": "uint256"
				}
			],
			"name": "Approval",
			"type": "event"
		},
		{
			"anonymous": false,
			"inputs": [
				{
					"indexed": true,
					"internalType": "address",
					"name": "owner",
					"type": "address"
				},
				{
					"indexed": true,
					"internalType": "address",
					"name": "operator",
					"type": "address"
				},
				{
					"indexed": false,
					"internalType": "bool",
					"name": "approved",
					"type": "bool"
				}
			],
			"name": "ApprovalForAll",
			"type": "event"
		},
		{
			"anonymous": false,
			"inputs": [
				{
					"indexed": true,
					"internalType": "address",
					"name": "previousOwner",
					"type": "address"
				},
				{
					"indexed": true,
					"internalType": "address",
					"name": "newOwner",
					"type": "address"
				}
			],
			"name": "OwnershipTransferred",
			"type": "event"
		},
		{
			"anonymous": false,
			"inputs": [
				{
					"indexed": true,
					"internalType": "address",
					"name": "from",
					"type": "address"
				},
				{
					"indexed": true,
					"internalType": "address",
					"name": "to",
					"type": "address"
				},
				{
					"indexed": true,
					"internalType": "uint256",
					"name": "tokenId",
					"type": "uint256"
				}
			],
			"name": "Transfer",
			"type": "event"
		},
		{
			"inputs": [
				{
					"internalType": "address",
					"name": "to",
					"type": "address"
				},
				{
					"internalType": "uint256",
					"name": "tokenId",
					"type": "uint256"
				}
			],
			"name": "approve",
			"outputs": [],
			"stateMutability": "nonpayable",
			"type": "function"
		},
		{
			"inputs": [
				{
					"internalType": "address",
					"name": "owner",
					"type": "address"
				}
			],
			"name": "balanceOf",
			"outputs": [
				{
					"internalType": "uint256",
					"name": "",
					"type": "uint256"
				}
			],
			"stateMutability": "view",
			"type": "function"
		},
		{
			"inputs": [
				{
					"internalType": "uint256",
					"name": "tokenId",
					"type": "uint256"
				}
			],
			"name": "getApproved",
			"outputs": [
				{
					"internalType": "address",
					"name": "",
					"type": "address"
				}
			],
			"stateMutability": "view",
			"type": "function"
		},
		{
			"inputs": [
				{
					"internalType": "uint256",
					"name": "tokenId",
					"type": "uint256"
				}
			],
			"name": "getRefundAmount",
			"outputs": [
				{
					"internalType": "uint256",
					"name": "",
					"type": "uint256"
				}
			],
			"stateMutability": "view",
			"type": "function"
		},
		{
			"inputs": [
				{
					"internalType": "uint256",
					"name": "tokenId",
					"type": "uint256"
				}
			],
			"name": "getRefundDeadline",
			"outputs": [
				{
					"internalType": "uint256",
					"name": "",
					"type": "uint256"
				}
			],
			"stateMutability": "view",
			"type": "function"
		},
		{
			"inputs": [
				{
					"internalType": "uint256",
					"name": "",
					"type": "uint256"
				}
			],
			"name": "hasRefunded",
			"outputs": [
				{
					"internalType": "bool",
					"name": "",
					"type": "bool"
				}
			],
			"stateMutability": "view",
			"type": "function"
		},
		{
			"inputs": [
				{
					"internalType": "address",
					"name": "owner",
					"type": "address"
				},
				{
					"internalType": "address",
					"name": "operator",
					"type": "address"
				}
			],
			"name": "isApprovedForAll",
			"outputs": [
				{
					"internalType": "bool",
					"name": "",
					"type": "bool"
				}
			],
			"stateMutability": "view",
			"type": "function"
		},
		{
			"inputs": [],
			"name": "maxMintPerUser",
			"outputs": [
				{
					"internalType": "uint256",
					"name": "",
					"type": "uint256"
				}
			],
			"stateMutability": "view",
			"type": "function"
		},
		{
			"inputs": [],
			"name": "maxMintSupply",
			"outputs": [
				{
					"internalType": "uint256",
					"name": "",
					"type": "uint256"
				}
			],
			"stateMutability": "view",
			"type": "function"
		},
		{
			"inputs": [],
			"name": "mintPrice",
			"outputs": [
				{
					"internalType": "uint256",
					"name": "",
					"type": "uint256"
				}
			],
			"stateMutability": "view",
			"type": "function"
		},
		{
			"inputs": [],
			"name": "name",
			"outputs": [
				{
					"internalType": "string",
					"name": "",
					"type": "string"
				}
			],
			"stateMutability": "view",
			"type": "function"
		},
		{
			"inputs": [],
			"name": "owner",
			"outputs": [
				{
					"internalType": "address",
					"name": "",
					"type": "address"
				}
			],
			"stateMutability": "view",
			"type": "function"
		},
		{
			"inputs": [
				{
					"internalType": "uint256",
					"name": "tokenId",
					"type": "uint256"
				}
			],
			"name": "ownerOf",
			"outputs": [
				{
					"internalType": "address",
					"name": "",
					"type": "address"
				}
			],
			"stateMutability": "view",
			"type": "function"
		},
		{
			"inputs": [
				{
					"internalType": "uint256",
					"name": "tokenId",
					"type": "uint256"
				}
			],
			"name": "refund",
			"outputs": [],
			"stateMutability": "nonpayable",
			"type": "function"
		},
		{
			"inputs": [],
			"name": "refundAddress",
			"outputs": [
				{
					"internalType": "address",
					"name": "",
					"type": "address"
				}
			],
			"stateMutability": "view",
			"type": "function"
		},
		{
			"inputs": [],
			"name": "refundEndTimestamp",
			"outputs": [
				{
					"internalType": "uint256",
					"name": "",
					"type": "uint256"
				}
			],
			"stateMutability": "view",
			"type": "function"
		},
		{
			"inputs": [
				{
					"internalType": "uint256",
					"name": "",
					"type": "uint256"
				}
			],
			"name": "refundEndTimestamps",
			"outputs": [
				{
					"internalType": "uint256",
					"name": "",
					"type": "uint256"
				}
			],
			"stateMutability": "view",
			"type": "function"
		},
		{
			"inputs": [],
			"name": "refundPeriod",
			"outputs": [
				{
					"internalType": "uint256",
					"name": "",
					"type": "uint256"
				}
			],
			"stateMutability": "view",
			"type": "function"
		},
		{
			"inputs": [],
			"name": "renounceOwnership",
			"outputs": [],
			"stateMutability": "nonpayable",
			"type": "function"
		},
		{
			"inputs": [
				{
					"internalType": "uint256",
					"name": "quantity",
					"type": "uint256"
				}
			],
			"name": "safeMint",
			"outputs": [],
			"stateMutability": "payable",
			"type": "function"
		},
		{
			"inputs": [
				{
					"internalType": "address",
					"name": "from",
					"type": "address"
				},
				{
					"internalType": "address",
					"name": "to",
					"type": "address"
				},
				{
					"internalType": "uint256",
					"name": "tokenId",
					"type": "uint256"
				}
			],
			"name": "safeTransferFrom",
			"outputs": [],
			"stateMutability": "nonpayable",
			"type": "function"
		},
		{
			"inputs": [
				{
					"internalType": "address",
					"name": "from",
					"type": "address"
				},
				{
					"internalType": "address",
					"name": "to",
					"type": "address"
				},
				{
					"internalType": "uint256",
					"name": "tokenId",
					"type": "uint256"
				},
				{
					"internalType": "bytes",
					"name": "_data",
					"type": "bytes"
				}
			],
			"name": "safeTransferFrom",
			"outputs": [],
			"stateMutability": "nonpayable",
			"type": "function"
		},
		{
			"inputs": [
				{
					"internalType": "address",
					"name": "operator",
					"type": "address"
				},
				{
					"internalType": "bool",
					"name": "approved",
					"type": "bool"
				}
			],
			"name": "setApprovalForAll",
			"outputs": [],
			"stateMutability": "nonpayable",
			"type": "function"
		},
		{
			"inputs": [
				{
					"internalType": "bytes4",
					"name": "interfaceId",
					"type": "bytes4"
				}
			],
			"name": "supportsInterface",
			"outputs": [
				{
					"internalType": "bool",
					"name": "",
					"type": "bool"
				}
			],
			"stateMutability": "view",
			"type": "function"
		},
		{
			"inputs": [],
			"name": "symbol",
			"outputs": [
				{
					"internalType": "string",
					"name": "",
					"type": "string"
				}
			],
			"stateMutability": "view",
			"type": "function"
		},
		{
			"inputs": [
				{
					"internalType": "uint256",
					"name": "tokenId",
					"type": "uint256"
				}
			],
			"name": "tokenURI",
			"outputs": [
				{
					"internalType": "string",
					"name": "",
					"type": "string"
				}
			],
			"stateMutability": "view",
			"type": "function"
		},
		{
			"inputs": [],
			"name": "totalSupply",
			"outputs": [
				{
					"internalType": "uint256",
					"name": "",
					"type": "uint256"
				}
			],
			"stateMutability": "view",
			"type": "function"
		},
		{
			"inputs": [
				{
					"internalType": "address",
					"name": "from",
					"type": "address"
				},
				{
					"internalType": "address",
					"name": "to",
					"type": "address"
				},
				{
					"internalType": "uint256",
					"name": "tokenId",
					"type": "uint256"
				}
			],
			"name": "transferFrom",
			"outputs": [],
			"stateMutability": "nonpayable",
			"type": "function"
		},
		{
			"inputs": [
				{
					"internalType": "address",
					"name": "newOwner",
					"type": "address"
				}
			],
			"name": "transferOwnership",
			"outputs": [],
			"stateMutability": "nonpayable",
			"type": "function"
		},
		{
			"inputs": [],
			"name": "withdraw",
			"outputs": [],
			"stateMutability": "nonpayable",
			"type": "function"
		}
	]
}